:020000040002F8
:10300000D0500020153202001D3202001F32020093
:1030100021320200233202002532020000000000AB
:103020000000000000000000000000002732020045
:1030300029320200000000002B3202002D32020073
:10304000455302002F3202002F3202002F320200BD
:103050002F3202002F3202004D480200C9530200F5
:103060002F3202002F3202002F3202002F320200D4
:103070002F3202002F3202002F3202002F320200C4
:103080002F320200955302002F3202002F3202002D
:10309000955502002F3202009D5502002F3202008A
:1030A0002F3202002F3202002F3202002F32020094
:1030B0002F3202002F32020000000000000000004A
:1030C0002F3202002F3202002F3202002F32020074
:1030D0002F3202002F3202002F32020000000000C7
:1030E00000000000000000000000000000000000E0
:1030F00000000000000000000000000000000000D0
:1031000000000000000000000000000000000000BF
:1031100000000000000000000000000000000000AF
:10312000000000000000000000000000000000009F
:10313000000000000000000000000000000000008F
:10314000000000000000000000000000000000007F
:10315000000000000000000000000000000000006F
:10316000000000000000000000000000000000005F
:10317000000000000000000000000000000000004F
:10318000000000000000000000000000000000003F
:10319000000000000000000000000000000000002F
:1031A000000000000000000000000000000000001F
:1031B000000000000000000000000000000000000F
:1031C00000000000000000000000000000000000FF
:1031D00000000000000000000000000000000000EF
:1031E00000000000000000000000000000000000DF
:1031F00000000000000000000000000000000000CF
:10320000DFF80CD000F00CFF0048004749B1020085
:10321000D05000200648804706480047FEE7FEE7FA
:10322000FEE7FEE7FEE7FEE7FEE7FEE7FEE7FEE776
:10323000855602000132020070B491E87800B2E8CD
:1032400002105B1854EB0C04B2E802104D4156EB2F
:103250000C0680E878008041013070BC70472DE991
:10326000F00791E8F807B2E802105B1854EB0C0481
:10327000B2E802104D4156EB0C06B2E802104F4185
:1032800058EB0C08B2E8021059EB01095AEB0C0A92
:1032900080E8F80780410130BDE8F00770472DE96C
:1032A000F00791E8F807B2E802105B1A74EB0C041F
:1032B000B2E802108D4176EB0C06B2E802108F41A5
:1032C00078EB0C08B2E8021079EB01097AEB0C0AF2
:1032D00080E8F80780414042BDE8F00770472DE9DB
:1032E000F007524290E87800B1E880071740DB19F8
:1032F00018EA020854EB080419EA020955EB09051B
:103300001AEA020A56EB0A0678C090E87800B1E89B
:10331000800717407B4118EA020854EB080419EAB9
:10332000020955EB09051AEA020A56EB0A0678C0AB
:1033300080410130BDE8F00770472DE9F0075242A7
:1033400090E87800B1E880071740DB1B18EA020814
:1033500074EB080419EA020975EB09051AEA020A76
:1033600076EB0A0678C090E87800B1E8800717404D
:10337000BB4118EA020874EB080419EA020975EB6C
:1033800009051AEA020A76EB0A0678C08041404233
:10339000BDE8F007704790E8300091E8C000A31B3B
:1033A0001340E41AF618EB1B1340ED1AFF1830C057
:1033B000C0C17047F0B55242FFF7EDFFFFF7EBFFDA
:1033C000FFF7E9FFFFF7E7FFF0BD2DE9F0073AC986
:1033D0001668A1FB069A4FF0000CE3FB06AC4FF019
:1033E0000007E4FB06C74FF00008E5FB067840F84D
:1033F000049B56684FF00009E1FB06A91CEB090C81
:103400004FF0000949EB0909E3FB06C917EB09076F
:103410004FF0000949EB0909E4FB067918EB0908AC
:103420004FF0000949EB0909E5FB068940F804ABB8
:1034300096684FF0000AE1FB06CA17EB0A074FF047
:10344000000A4AEB0A0AE3FB067A18EB0A084FF077
:10345000000A4AEB0A0AE4FB068A19EB0A094FF054
:10346000000A4AEB0A0AE5FB069A40F804CBD66844
:103470004FF0000CE1FB067C18EB0C084FF0000C41
:103480004CEB0C0CE3FB068C19EB0C094FF0000C19
:103490004CEB0C0CE4FB069C1AEB0C0A4FF0000CF6
:1034A0004CEB0C0CE5FB06AC80E88017BDE8F007A0
:1034B00070470A462DE9F04F92E8F00F2DE9F30F1F
:1034C00087B091E839000999A0FB01784FF0000915
:1034D000E3FB01894FF0000AE4FB019A4FF0000B77
:1034E000E5FB01AB0D994FF0000CE0FB01BC4FF088
:1034F000000EE3FB01CE4FF00002E4FB01E24FF0CF
:103500000006E5FB012600970A994FF00007E0FB53
:10351000018719EB07094FF0000747EB0707E3FBAB
:1035200001971AEB070A4FF0000747EB0707E4FB88
:1035300001A71BEB070B4FF0000747EB0707E5FB65
:1035400001B70E991CEB070C4FF0000747EB07077C
:10355000E0FB01C71EEB070E4FF0000747EB070724
:10356000E3FB01E7D2194FF0000747EB0707E4FB45
:103570000127F6194FF0000747EB0707E5FB016746
:10358000CDF804800B994FF00008E0FB01981AEB8E
:10359000080A4FF0000848EB0808E3FB01A81BEB02
:1035A000080B4FF0000848EB0808E4FB01B81CEBDF
:1035B000080C4FF0000848EB0808E5FB01C80F991C
:1035C0001EEB080E4FF0000848EB0808E0FB01E88E
:1035D00012EB08024FF0000848EB0808E3FB012853
:1035E00016EB08064FF0000848EB0808E4FB0168FA
:1035F00017EB08074FF0000848EB0808E5FB0178D7
:10360000CDF808900C994FF00009E0FB01A91BEBE5
:10361000090B4FF0000949EB0909E3FB01B91CEB69
:10362000090C4FF0000949EB0909E4FB01C91EEB45
:10363000090E4FF0000949EB0909E5FB01E9109972
:1036400012EB09024FF0000949EB0909E0FB0129DF
:1036500016EB09064FF0000949EB0909E3FB016984
:1036600017EB09074FF0000949EB0909E4FB017961
:1036700018EB09084FF0000949EB0909E5FB01893E
:10368000CDF80CA0089901F1100191E839000999D1
:103690004FF0000AE0FB01BA1CEB0A0C4FF0000AE5
:1036A0004AEB0A0AE3FB01CA1EEB0A0E4FF0000ABE
:1036B0004AEB0A0AE4FB01EA12EB0A024FF0000AA5
:1036C0004AEB0A0AE5FB012A0D9916EB0A064FF0B0
:1036D000000A4AEB0A0AE0FB016A17EB0A074FF0FF
:1036E000000A4AEB0A0AE3FB017A18EB0A084FF0DA
:1036F000000A4AEB0A0AE4FB018A19EB0A094FF0B7
:10370000000A4AEB0A0AE5FB019ACDF810B00A99C3
:103710004FF0000BE0FB01CB1EEB0B0E4FF0000B4C
:103720004BEB0B0BE3FB01EB12EB0B024FF0000B2F
:103730004BEB0B0BE4FB012B16EB0B064FF0000BD6
:103740004BEB0B0BE5FB016B0E9917EB0B074FF0E7
:10375000000B4BEB0B0BE0FB017B18EB0B084FF066
:10376000000B4BEB0B0BE3FB018B19EB0B094FF041
:10377000000B4BEB0B0BE4FB019B1AEB0B0A4FF01E
:10378000000B4BEB0B0BE5FB01ABCDF814C00B9919
:103790004FF0000CE0FB01EC12EB0C024FF0000CC0
:1037A0004CEB0C0CE3FB012C16EB0C064FF0000C61
:1037B0004CEB0C0CE4FB016C17EB0C074FF0000C0E
:1037C0004CEB0C0CE5FB017C0F9918EB0C084FF04F
:1037D000000C4CEB0C0CE0FB018C19EB0C094FF0CE
:1037E000000C4CEB0C0CE3FB019C1AEB0C0A4FF0A9
:1037F000000C4CEB0C0CE4FB01AC1BEB0C0B4FF086
:10380000000C4CEB0C0CE5FB01BCCDF818E00C995E
:103810004FF0000EE0FB012E16EB0E064FF0000EEF
:103820004EEB0E0EE3FB016E17EB0E074FF0000E92
:103830004EEB0E0EE4FB017E18EB0E084FF0000E6F
:103840004EEB0E0EE5FB018E109919EB0E094FF0B1
:10385000000E4EEB0E0EE0FB019E1AEB0E0A4FF02F
:10386000000E4EEB0E0EE3FB01AE1BEB0E0B4FF00A
:10387000000E4EEB0E0EE4FB01BE1CEB0E0C4FF0E7
:10388000000E4EEB0E0EE5FB01CE079800F11C0179
:1038900081E8C45FBDE8F80380E8F8030AB0BDE83A
:1038A000F08F00BF2DE9F00791E8F807B2E80210A9
:1038B0005B1854EB0C04B2E802104D4156EB0C06B9
:1038C000B2E802104F4158EB0C08B2E8021059EB75
:1038D00001095AEB0C0A4FF0260261EB010122EAC2
:1038E00001015B1854F1000455F1000556F1000682
:1038F00057F1000758F1000859F100095AF1000A80
:1039000061EB010122EA01010B4480E8F807BDE800
:10391000F00770472DE9F00791E8F807B2E80210C8
:103920005B1A74EB0C04B2E802108D4176EB0C06C6
:10393000B2E802108F4178EB0C08B2E8021079EB84
:1039400001097AEB0C0A4FF0260261EB010102EA51
:1039500001015B1A74F1000475F1000576F10006AF
:1039600077F1000778F1000879F100097AF1000A8F
:1039700061EB010102EA0101A3EB010380E8F80712
:10398000BDE8F00770470A462DE9F04F92E8F00FC6
:103990002DE9F30F87B091E839000999A0FB017870
:1039A0004FF00009E3FB01894FF0000AE4FB019AA4
:1039B0004FF0000BE5FB01AB0D994FF0000CE0FB65
:1039C00001BC4FF0000EE3FB01CE4FF00002E4FB20
:1039D00001E24FF00006E5FB012600970A994FF03F
:1039E0000007E0FB018719EB07094FF0000747EBE1
:1039F0000707E3FB01971AEB070A4FF0000747EBB5
:103A00000707E4FB01A71BEB070B4FF0000747EB91
:103A10000707E5FB01B70E991CEB070C4FF00007F9
:103A200047EB0707E0FB01C71EEB070E4FF000074F
:103A300047EB0707E3FB01E7D2194FF0000747EB1D
:103A40000707E4FB0127F6194FF0000747EB0707CC
:103A5000E5FB0167CDF804800B994FF00008E0FB0F
:103A600001981AEB080A4FF0000848EB0808E3FB3E
:103A700001A81BEB080B4FF0000848EB0808E4FB1B
:103A800001B81CEB080C4FF0000848EB0808E5FBF8
:103A900001C80F991EEB080E4FF0000848EB08080C
:103AA000E0FB01E812EB08024FF0000848EB0808C1
:103AB000E3FB012816EB08064FF0000848EB080866
:103AC000E4FB016817EB08074FF0000848EB080813
:103AD000E5FB0178CDF808900C994FF00009E0FB68
:103AE00001A91BEB090B4FF0000949EB0909E3FBA6
:103AF00001B91CEB090C4FF0000949EB0909E4FB83
:103B000001C91EEB090E4FF0000949EB0909E5FB5D
:103B100001E9109912EB09024FF0000949EB09097C
:103B2000E0FB012916EB09064FF0000949EB0909F2
:103B3000E3FB016917EB09074FF0000949EB09099D
:103B4000E4FB017918EB09084FF0000949EB09097A
:103B5000E5FB0189CDF80CA0089901F1100191E86D
:103B6000390009994FF0000AE0FB01BA1CEB0A0C7E
:103B70004FF0000A4AEB0A0AE3FB01CA1EEB0A0EE9
:103B80004FF0000A4AEB0A0AE4FB01EA12EB0A02D0
:103B90004FF0000A4AEB0A0AE5FB012A0D9916EBE1
:103BA0000A064FF0000A4AEB0A0AE0FB016A17EB2B
:103BB0000A074FF0000A4AEB0A0AE3FB017A18EB06
:103BC0000A084FF0000A4AEB0A0AE4FB018A19EBE3
:103BD0000A094FF0000A4AEB0A0AE5FB019ACDF800
:103BE00010B00A994FF0000BE0FB01CB1EEB0B0E5F
:103BF0004FF0000B4BEB0B0BE3FB01EB12EB0B025B
:103C00004FF0000B4BEB0B0BE4FB012B16EB0B0601
:103C10004FF0000B4BEB0B0BE5FB016B0E9917EB19
:103C20000B074FF0000B4BEB0B0BE0FB017B18EB92
:103C30000B084FF0000B4BEB0B0BE3FB018B19EB6D
:103C40000B094FF0000B4BEB0B0BE4FB019B1AEB4A
:103C50000B0A4FF0000B4BEB0B0BE5FB01ABCDF868
:103C600014C00B994FF0000CE0FB01EC12EB0C02BE
:103C70004FF0000C4CEB0C0CE3FB012C16EB0C068C
:103C80004FF0000C4CEB0C0CE4FB016C17EB0C0739
:103C90004FF0000C4CEB0C0CE5FB017C0F9918EB82
:103CA0000C084FF0000C4CEB0C0CE0FB018C19EBFA
:103CB0000C094FF0000C4CEB0C0CE3FB019C1AEBD5
:103CC0000C0A4FF0000C4CEB0C0CE4FB01AC1BEBB2
:103CD0000C0B4FF0000C4CEB0C0CE5FB01BCCDF8D1
:103CE00018E00C994FF0000EE0FB012E16EB0E06CB
:103CF0004FF0000E4EEB0E0EE3FB016E17EB0E07BE
:103D00004FF0000E4EEB0E0EE4FB017E18EB0E089A
:103D10004FF0000E4EEB0E0EE5FB018E109919EBE5
:103D20000E094FF0000E4EEB0E0EE0FB019E1AEB5B
:103D30000E0A4FF0000E4EEB0E0EE3FB01AE1BEB36
:103D40000E0B4FF0000E4EEB0E0EE4FB01BE1CEB13
:103D50000E0C4FF0000E4EEB0E0EE5FB01CE4FF0B9
:103D60002601DDE900344FF00000E6FB01302418A5
:103D70004FF0000040EB0000E7FB0140DDE9025698
:103D80002D184FF0000040EB0000E8FB0150361802
:103D90004FF0000040EB0000E9FB0160DDE9048921
:103DA00018EB00084FF0000040EB0000EAFB018038
:103DB00019EB00094FF0000040EB0000EBFB019015
:103DC000DDF818A01AEB000A4FF0000040EB0000ED
:103DD000ECFB01A012184FF0000040EB0000EEFBDE
:103DE000012000FB01F01B1854F1000455F10005FF
:103DF00056F1000658F1000759F100085AF1000980
:103E000052F1000A60EB000021EA00000344079829
:103E100080E8F80711B0BDE8F08F2DE9F00791E8D0
:103E2000F0174EF6A1514FEA4101A4FB01234FF0D8
:103E30000004E5FB01344FF00005E6FB01454FF0BF
:103E40000006E7FB01564FF00007E8FB01674FF063
:103E50000008E9FB01784FF00009EAFB01894FF007
:103E6000000AECFB019A4FF026010AFB01FA12EB63
:103E70000A0253F1000354F1000455F1000556F114
:103E8000000657F1000758F1000859F100096AEBE4
:103E90000A0A21EA0A010A4480E8FC03BDE8F007A7
:103EA00070472DE9F00390E8F8134FEAEC7202F046
:103EB00013022CF0004C02F11301591854F10001C7
:103EC00055F1000156F1000157F1000158F10001D0
:103ED00059F100015CF100014FEAE17101F01301B9
:103EE00011445B1854F1000455F1000556F1000629
:103EF00057F1000758F1000859F100094CF1000C86
:103F00002CF0004C80E8F813BDE8F003704700BFC8
:103F10002DE9F05F0546002092469B4688460646FE
:103F2000814640241BE0284641464746224600F091
:103F300067F853465A46C01A914110D311461846A5
:103F4000224600F04EF82D1A67EB01084F46224634
:103F50000120002100F045F817EB00094E41201E1A
:103F6000A4F10104DFDC484631462A464346BDE859
:103F7000F09F40EA01039B0703D009E008C9121F24
:103F800008C0042AFAD203E011F8013B00F8013B13
:103F9000521EF9D27047D2B201E000F8012B491E3F
:103FA000FBD270470022F6E710B513460A460446D6
:103FB0001946FFF7F0FF204610BD421C10F8011B08
:103FC0000029FBD1801A704730B504460020034613
:103FD00000E05B1C934203D2E05CCD5C401BF8D058
:103FE00030BD202A04DB203A00FA02F1002070479D
:103FF0009140C2F1200320FA03F319439040704727
:10400000202A04DB203A21FA02F00021704721FA2D
:1040100002F3D040C2F12002914008431946704794
:10402000064C074D06E0E06840F0010394E8070005
:1040300098471034AC42F6D3FFF7E6F8C8F3020015
:10404000E8F3020070B58C1810F8015B15F0070357
:1040500001D110F8013B2A1106D110F8012B03E021
:1040600010F8016B01F8016B5B1EF9D12B0705D429
:104070000023521E0DD401F8013BFAE710F8013B72
:10408000CB1A921C03E013F8015B01F8015B521E8E
:10409000F9D5A142D8D3002070BD38B504461546E5
:1040A0002046FFF770FC20462146FFF76CFC2046B7
:1040B0002146FFF768FC20462146FFF764FC2146B5
:1040C0002046FFF760FC053D2146E9D138BD2DE9CA
:1040D000F04380460878C1B020F007000B468DF809
:1040E0004000012410AF195DE15501341F2CF9D1B6
:1040F000DB7F03F03F0343F04003684611466E4602
:104100008DF85F3000F007F90FCE18AD0FC596E8B7
:104110000F0085E80F006846012100F00FF918AE86
:1041200008A8002100F00AF90FCE20AD0FC596E8CF
:104130000F0085E80F0028A8012100F0FFF84FF0DC
:10414000060900252E463D5D45FA09F505F00105F5
:104150006E403246684620A9FFF72CF9324608A87F
:1041600028A9FFF727F930A8694608AAFFF79AFBA4
:1041700008A802466946FFF7CDFB38A820A928AA5F
:10418000FFF790FB28A8024620A9FFF7C3FB38A839
:10419000014608AAFFF7F8FB28A8014630AAFFF756
:1041A000F3FB20A828A938AAFFF77CFB28A838AA87
:1041B0000146FFF7AFFB20A80146FFF7E4FB28A864
:1041C0000146FFF7E0FB28A818AA0146FFF7DCFB31
:1041D00030A80146FFF7D7FB38A808A9FFF7D3FBA3
:1041E000684630A938AAFFF7CFFB30A8014638AAA5
:1041F000FFF790FB08A830A9FFF70FFE08A80146BB
:1042000038AAFFF74FFB08A8014630AA09F1FF3989
:10421000FFF7BAFBB9F1FF3F2E4694D1013C631C76
:104220004FF007098ED108A80146012200F08FF84F
:104230006846694608AAFFF7A7FB4046694600F0B2
:1042400006F941B0BDE8F083014AFFF740BF00BF67
:10425000A8F2020013B5049C00940024019400F01D
:1042600002F802B010BD2DE9F041AAB01446319F0A
:1042700005460E4698460022A24206D0B15C81F067
:1042800036010DF802100132F6E722463F2A04D823
:1042900036230DF802300132F8E710A800F02EF9AD
:1042A00010A86946402200F0CBF910A84146309A88
:1042B00000F0C6F937B110A8694601228DF80070E8
:1042C00000F0BEF9284610A900F0D8F80023A34258
:1042D00006D0F25C82F05C020DF803200133F6E7B1
:1042E0003F2C04D85C230DF804300134F8E710A803
:1042F00000F004F910A86946402200F0A1F910A8C6
:104300002946202200F09CF9284610A900F0B6F8B2
:104310002AB0BDE8F0810B6803604B6843608B688E
:104320008360CB68C3600B6903614B6943618B6930
:104330008361CB6923F00043C3617047016000F1E2
:104340001C03002240F8042F9842FAD1704770B540
:10435000A0B00546684616460C46FFF714FB18A8A1
:104360006946FFF710FB18A80146FFF70CFB08A8E9
:1043700018A92246FFF708FB6A46684608A9FFF716
:1043800003FB18A86946FFF7FEFA08A8024618A919
:10439000FFF7FAFA18A808A90522FFF77EFE08A879
:1043A000024618A9FFF7F0FA18A808A90A22FFF791
:1043B00074FE10A818A908AAFFF7E6FA18A810A911
:1043C0001422FFF76AFE18A8014610AAFFF7DCFACC
:1043D00018A801460A22FFF760FE10A818A908AA2B
:1043E000FFF7D2FA18A810A93222FFF756FE08A844
:1043F00018A910AAFFF7C8FA18A808A96422FFF79D
:104400004CFE18A8014608AAFFF7BEFA18A80146F4
:104410003222FFF742FE18A8014610AAFFF7B4FAAD
:1044200018A8014636B10522FFF737FE284618A91D
:104430006A4608E0FFF7A7FA18A80146FFF7A3FAB3
:10444000284618A92246FFF79FFA20B070BD38B55C
:104450000C4605460846FFF724FD23682B60636879
:104460006B60A368AB60E368EB6023692B616369F1
:104470006B61A369AB61E369EB6138BD38B5054693
:10448000086E0B180130802238280C4683F8202053
:104490000DD93F2805D82318002283F820200130A9
:1044A000F7E7204604F12001402200F0F9F83A280D
:1044B00005D82318002283F820200130F7E7636E27
:1044C0005A0F84F85B205A0D84F85C205A0B84F84C
:1044D0005D205A09DB0084F85E2084F85F302046B6
:1044E00004F12001402200F0DBF80023E25812BA68
:1044F000EA500433202BF9D138BD00000B4B0C4996
:104500000C4ADFF840C080E80E100B4B03610B4BE8
:1045100043610B4B836103F17453A3F52303A3F6AB
:104520009243C361002303664366704772F36E3C97
:1045300067E6096A85AE67BB7F520E518C68059BA2
:10454000ABD9831F3AF54FA52DE9F04F83B08146D3
:10455000D368009309F14003A1F1040BD2F81CA029
:1045600017699169D2F814E016685068D2F808C04B
:10457000019302E0304627461E465BF8048F59F847
:10458000043BC2F80CC04FEAB7158EEA010485EA75
:10459000F72585EA776543443C404C4040EA0608ED
:1045A0002B444FEAB60508EA0C08234485EA763521
:1045B00000EA060448EA040885EAB655009C9060C3
:1045C000CDF800C084460198D1615344A8441C44EE
:1045D00081454344C2F818E08A46576171465660E7
:1045E0001461BE461360C5D103B0BDE8F08F00BFB3
:1045F000F0B5061F00252A46AB1E013505F00F0158
:1046000003F00F03073A50F8211050F8237056F8C2
:10461000043F02F00F024FEAF11450F822E084EA5E
:10462000B1444FEA7742734484EAD10182EAF74207
:10463000194482EA97230B44102D3360DBD1F0BD7F
:1046400070B5436E1446026E234405460E4643661B
:104650008AB13F2A07D80CB30132AB1816F8011BF8
:10466000D977013CF5E7402A05D1284605F120011C
:1046700000F016F802468CB122463146284600F07A
:104680000FF8241A3444024605F11F0321188C4206
:1046900004D014F8010B03F8010FF8E72A6670BD87
:1046A0002DE9F043044699B08846174615463F2D3C
:1046B000A7EB05014CD92368009363680193A368B5
:1046C0000293E36803932369049363690593A369E1
:1046D0000693E3690793002308EB01020DF120091B
:1046E000D25812BA43F809200433402BF4D10026E3
:1046F0001A48494630446A464036FFF725FFB6F56A
:10470000807F03D04846FFF773FFF1E72268009BE4
:10471000134423606268019B13446360A268029B98
:104720001344A360E268039B1344E3602269049B83
:10473000134423616269059B13446361A269069B6C
:104740001344A361E269079B1344E361403DAEE774
:1047500007F03F0019B0BDE8F08300BFC8F20200C7
:1047600070B505460E4614462946204600F048F826
:10477000044804600448066000F066FC00F082F91A
:1047800070BD0000C0210020C421002070B5054686
:104790000E4614462946204600F032F804480460CC
:1047A0000448066000F050FC00F034F870BD0000D2
:1047B000C0210020C421002010B50246002018E0CE
:1047C000002112E0130103EB80030B440A4CE35C6D
:1047D0000A4C246804EB8004645C6340074C246842
:1047E00004EB800463544B1CD9B20429EADB431C5C
:1047F000D8B20428E4DB10BD14260020C02100201C
:104800000246002003E00B5C1354431CD8B210286E
:10481000F9DB704710B500240020FFF7CDFF01241D
:104820000AE000F00BFF00F0BDFE00F0BFFC2046E8
:10483000FFF7C2FF601CC4B20A2CF2DB00F0FEFEE0
:1048400000F0B0FE0A20FFF7B7FF10BD2DE9F04FD2
:1048500089B04FF00008002008904FF48070079056
:104860000126002413E0079807F0D4FC48B100BFEC
:1048700081480068304020B1079807F0BDFC48EA45
:10488000060876000798001D80B20790641C082C6B
:10489000E9D34FF4BE7007F0BDFC50B14FF4BE70C9
:1048A00007F0AAFC48F0004808AA0121002007F000
:1048B00089FC08F0FF0000B3012600241BE006EA93
:1048C0000800B0B100BF6D4850F82400C0F30420C8
:1048D000074600BF694850F82400C0F301408146F4
:1048E000204603F06DF8054615B149463846A847FD
:1048F00000BF7600641C082CE1D308F000400028BB
:104900007ED0002006900590002505E04FF0FF3096
:1049100004A941F825006D1C002DF7D000BF002030
:10492000069000246FE05648005D0390039820F045
:10493000C00753480057401C002863D004A93846DC
:1049400006F034FD00285DD003984FEA901A3846EF
:1049500003F07EF8814603F033F80290029810B914
:10496000BAF1030F4BD1BAF1030F11D1394605A8A3
:104970000246CB0801F0070112F803C04FF0010E08
:104980000EFA01FE4CEA0E0C02F803C000BF00BF95
:1049900000BF00BF4FF0A041084600F5E06151F8AC
:1049A0002710C1F3014900BF08A9384606F0FEFCF4
:1049B0008346BBF1000F02D0B9F1020F05D0BBF165
:1049C000000F1BD1B9F1030F18D1BAF1030F0FD1AA
:1049D000B9F1020F01D1032000E002200190384616
:1049E000019907F0ADFB0698401CC0B2069000BFCD
:1049F000029818B151463846029A904700BF00E02D
:104A000036E000BF641C042C8DD3069858B30127F0
:104A100003AA0121002007F0D5FB00250AE003A826
:104A200050F8250008A951F82510884201D0002728
:104A300002E06D1C002DF2D000BF17B100200690DF
:104A400010E000250CE003A850F8250008A941F863
:104A5000250005A850F8250004A941F825006D1C83
:104A6000002DF0D000BF069800287FF458AF00BF9B
:104A700009B0BDE8F08F00000463004010650040FD
:104A8000DC25002010B500240A20FFF795FE09243C
:104A90000AE000F071FA00F0BBFA2046FFF78CFE46
:104AA00000F00CF8601EC4B2002CF2DC00F064FAD6
:104AB00000F0AEFA0020FFF77FFE10BD30B589B0E0
:104AC0000020089050E2FE480168089811F8200084
:104AD0000790FB480168089801EB80004078069039
:104AE000F7480168089801EB800080780590F44849
:104AF0000168089801EB8000C0780490079809F0DD
:104B000099FF0446079809F095FF039009F092FF7A
:104B10004440079809F08EFF029009F08BFF039044
:104B200009F088FF4440079809F084FF019009F0DC
:104B300081FF029009F07EFF039009F07BFF069849
:104B400009F078FF05460698454009F073FF039089
:104B500009F070FF069809F06DFF029009F06AFFF6
:104B6000039009F067FF4540069809F063FF019044
:104B700009F060FF029009F05DFF039009F05AFF11
:104B80006C40059809F056FF0598054609F052FF5C
:104B9000039009F04FFF4540059809F04BFF029044
:104BA00009F048FF039009F045FF4540059809F0DA
:104BB00041FF019009F03EFF029009F03BFF039096
:104BC00009F038FF6C40049809F034FF049805465A
:104BD00009F030FF039009F02DFF049809F02AFF37
:104BE000029009F027FF039009F024FF4540049844
:104BF00009F020FF019009F01DFF029009F01AFF53
:104C0000039009F017FF6C40AD480168089801F85F
:104C10002040079809F00EFF0798044609F00AFFA4
:104C2000039009F007FF079809F004FF029009F0CC
:104C300001FF039009F0FEFE4440079809F0FAFED8
:104C4000019009F0F7FE029009F0F4FE039009F0DC
:104C5000F1FE069809F0EEFE0546069809F0EAFE18
:104C6000039009F0E7FE4540069809F0E3FE029044
:104C700009F0E0FE039009F0DDFE4540069809F0DA
:104C8000D9FE019009F0D6FE029009F0D3FE039000
:104C900009F0D0FE6C40059809F0CCFE0546059859
:104CA000454009F0C7FE039009F0C4FE059809F0DD
:104CB000C1FE029009F0BEFE039009F0BBFE454024
:104CC000059809F0B7FE019009F0B4FE029009F0D2
:104CD000B1FE039009F0AEFE6C40049809F0AAFE04
:104CE0000498054609F0A6FE039009F0A3FE45408E
:104CF000049809F09FFE029009F09CFE039009F0D1
:104D000099FE4540049809F095FE019009F092FE45
:104D1000029009F08FFE039009F08CFE6C40684809
:104D20000168089801EB80004470079809F082FE42
:104D30000798044609F07EFE039009F07BFE44408C
:104D4000079809F077FE029009F074FE039009F0CD
:104D500071FE4440079809F06DFE019009F06AFE6B
:104D6000029009F067FE039009F064FE069809F0CE
:104D700061FE0698054609F05DFE039009F05AFEB3
:104D8000069809F057FE029009F054FE039009F0CE
:104D900051FE4540069809F04DFE019009F04AFE8B
:104DA000029009F047FE039009F044FE6C4005981C
:104DB00009F040FE0546059809F03CFE039009F015
:104DC00039FE4540059809F035FE029009F032FEA3
:104DD000039009F02FFE4540059809F02BFE019045
:104DE00009F028FE029009F025FE039009F022FE4A
:104DF0006C40049809F01EFE05460498454009F0F1
:104E000019FE039009F016FE049809F013FE0290B3
:104E100009F010FE039009F00DFE4540049809F0DA
:104E200009FE019009F006FE029009F003FE0390CE
:104E300009F000FE6C4022480268089802EB8000EE
:104E40008470079809F0F6FD04460798444009F07D
:104E5000F1FD039009F0EEFD079809F0EBFD0290DB
:104E600009F0E8FD039009F0E5FD4440079809F0DA
:104E7000E1FD019009F0DEFD029009F0DBFD0390F9
:104E800009F0D8FD069809F0D5FD0698054609F009
:104E9000D1FD039009F0CEFD4540069809F0CAFD0A
:104EA000029009F0C7FD039009F0C4FD4540069843
:104EB00009F0C0FD019009F0BDFD029002E0000084
:104EC000C021002009F0B6FD039009F0B3FD6C404D
:104ED000059809F0AFFD0598054609F0ABFD039074
:104EE00009F0A8FD059809F0A5FD029009F0A2FDC2
:104EF000039009F09FFD4540059809F09BFD019046
:104F000009F098FD029009F095FD039009F092FDDB
:104F10006C40049809F08EFD0546049809F08AFD5E
:104F2000039009F087FD4540049809F083FD029045
:104F300009F080FD039009F07DFD4540049809F0DB
:104F400079FD019009F076FD029009F073FD039060
:104F500009F070FD6C4007480268089802EB800079
:104F6000C4700898401C089008980428FFF6ABAD60
:104F700009B030BDC021002024490968487B23497D
:104F800009684A7A214909684A73204909684A79B7
:104F90001E4909684A721D4909684A781B4909680F
:104FA0004A711A4909684870184909688878174988
:104FB0000968897A154A12689170144909688872DB
:104FC000124909688879114909688A7B0F4909687B
:104FD0008A710E49096888730C490968C8780B49B9
:104FE0000968C979094A1268D17008490968CA7AFA
:104FF00006490968CA7105490968CA7B03490968F5
:10500000CA7202490968C87370470000C0210020B5
:1050100070B5002413E000250DE00A49096801EB92
:105020008501085D05F05CFC0649096801EB850116
:105030000855681CC5B2042DEFDB601CC4B2042CFB
:10504000E9DB70BDC0210020F8B5002429E0002074
:1050500000EB840052490968085C002101EB8401DF
:10506000504A5054012000EB84004D490968085C07
:10507000012101EB84015054022000EB84004849D7
:105080000968085C022101EB84015054032000EB05
:10509000840043490968085C032101EB84015054F2
:1050A000641C042CD3D378E0002507E0601E05EBD8
:1050B00080003C49085C0DF805006D1C042DF5D3FB
:1050C00004F0030088BB9DF800609DF801008DF896
:1050D00000009DF802008DF801009DF803008DF896
:1050E00002008DF803609DF8000005F0FFFB8DF8CD
:1050F00000009DF8010005F0F9FB8DF801009DF816
:10510000020005F0F3FB8DF802009DF8030005F0A6
:10511000EDFB8DF803009DF80000234901EB94019D
:10512000097848408DF8000001E0FFE700BF201F2C
:10513000002101EB80001B49085C9DF800104840ED
:10514000002101EB8401174A5054201F012101EB7B
:1051500080001146085C9DF801104840012101EBD8
:1051600084015054201F022101EB80001146085C8D
:105170009DF802104840022101EB84015054201F89
:10518000032101EB80001146085C9DF803104840A4
:10519000032101EB84015054641C2C2C84D3F8BDF2
:1051A000C421002014260020F8ED02002DE9F04172
:1051B000002488E04648006810F8247044480068DD
:1051C00010F824004249096801EB840149784840FD
:1051D0003F49096801EB8401897848403C490968E6
:1051E00001EB8401C97880EA01053948006810F8AC
:1051F00024003749096801EB8401497880EA0106F7
:10520000304609F017FC06463148006810F82400C3
:1052100086EA050148402E49096801F824002C4817
:10522000006800EB840040782949096801EB84019B
:10523000897880EA0106304609F0FCFB06462448DE
:10524000006800EB8400407886EA05014840204968
:10525000096801EB840148701D48006800EB840078
:1052600080781B49096801EB8401C97880EA01064E
:10527000304609F0DFFB06461548006800EB840065
:10528000807886EA050148401149096801EB8401EC
:1052900088700F48006800EB8400C07880EA070639
:1052A000304609F0C7FB06460948006800EB840059
:1052B000C07886EA050148400549096801EB840188
:1052C000C870601CC4B2042CFFF674AFBDE8F08156
:1052D000C021002000F01F0201219140024A430931
:1052E00042F823107047000080E200E000F01F0247
:1052F000012191404209920002F1E022C2F800111E
:105300007047000000F01F0201219140024A43094A
:1053100042F823107047000000E200E010B50028BA
:1053200007DA4A07140E054A00F00F031B1FD45476
:1053300003E04A07130E024A135410BD18ED00E0B3
:1053400000E400E010B54FF4807006F0D6FA60B1CA
:105350004FF4807006F0DAFA012006F0E1FA01203D
:105360000B494870002002F08FFC4FF4827006F069
:10537000C4FA58B14FF4827006F0C8FA022006F061
:10538000CFFA01200249887002F07EFC10BD0000B7
:105390007825002010B5002009490860002109483F
:1053A000C0F84411C0F84811C0F84C11002005495C
:1053B000C1F8000102493C39086008F0BBFF10BD8C
:1053C0004011014000100140FEB54FF4827006F01C
:1053D0007FFF002837D04FF4827006F083FF6C48BF
:1053E00090F82E0018B16A4890F82F0058B30020AA
:1053F0008DF8000066484068019065480189ADF865
:105400000810C06818B900206149087412E06048AB
:10541000008B5F4948830846C06848600846008B97
:1054200008810020C860084690F82E0010B90020BE
:1054300006F070FF564801686846884700205449C6
:1054400081F82F0000BF524890F82E00002852D05B
:105450004FF4807006F03CFF00284CD04FF4807071
:1054600006F040FF4A48408B494991F82D10884288
:1054700016DD4748408B464991F82D10401A4449A3
:1054800048830A4612890B465B8BD21A0B465B682F
:1054900003EB42000A4692F82D1006F0CDFE23E001
:1054A0003B48408B3A4991F82D1088420FD138483B
:1054B000C06860B10120364981F82F000020488380
:1054C0000A4692F82D10D06806F0B6FE0CE030487F
:1054D000408B2F4991F82D10884205D101202C498D
:1054E00081F82F00002048834FF4827006F0FAFE06
:1054F000042006F00FFF4FF4887006F0E9FE70B14B
:105500004FF4887006F0EEFE002021490874022056
:105510008DF80000084601686846884700BF4FF4D0
:105520008A7006F0D5FE38B14FF48A7006F0DAFEC4
:105530000020174908742AE01548456924E0B5FAA7
:1055400085F64FF00040F0408543B00000F58C74C4
:10555000204606F0BDFEB8B1204606F0C3FE01208D
:105560008DF80000A4F58C70C0F3C7008DF804001E
:10557000A4F58C70012121EA90018DF805100448F2
:1055800001686846884700BF002DD8D100BFFEBD26
:10559000E425002010B508F0D7FD10BD10B506F0C9
:1055A0006BFF10BD24490968487823490968497987
:1055B000214A12685170204909684A7A1E490968CF
:1055C0004A711D4909684A7B1B4909684A721A4990
:1055D0000968487318490968887817490968897AF9
:1055E000154A12689170144909688872124909684D
:1055F0008879114909688A7B0F4909688A710E49BF
:10560000096888730C490968C8780B490968C97B1F
:10561000094A1268D17008490968CA7A06490968B6
:10562000CA7305490968CA7903490968CA720249F7
:105630000968C87170470000C021002070B50024BF
:1056400013E000250DE00A49096801EB8501085DBA
:1056500005F04CF90649096801EB85010855681CFD
:10566000C5B2042DEFDB601CC4B2042CE9DB70BDB5
:10567000C021002001480249086070470090D00313
:10568000B422002010B502F06BFF28B188480088D2
:10569000C0F304208749086002F0B6FF10B18648C5
:1056A0008649486702F0C8FF30B18148E038006899
:1056B000C0F342308249086002F0E8FF28B1814817
:1056C000006820F080707F49086002F0F7FF48B161
:1056D00000207D4908604FF08041C1F810017849F1
:1056E000091F086003F014F818B1032074496431ED
:1056F000086003F025F868B10520744908600120AE
:1057000072497831086000207049083108603F20F4
:10571000091F086003F02CF8002855D06448E030D9
:1057200000686B4908606248E4300068091D086041
:105730005F48E8300068091D08605D48EC3000688B
:10574000091D08605A48F0300068091D0860584873
:10575000F4300068091D08605548F83000685C495D
:10576000203108605248FC300068091D0860594823
:105770000068091D08605748001D0068091D086081
:10578000544808300068091D086052480C30006811
:10579000091D08604F48103000684D4940310860CD
:1057A0004C4814300068091D08604A4818300068E9
:1057B000091D086047481C300068091D08604548FD
:1057C00020300068091D086002F0A0FE30B13848A2
:1057D000CC38006800F04F003F49086002F0EAFE54
:1057E00040B13E48006800F0010018B16FF00100C0
:1057F0003A49086033487438006840F47000314911
:105800007439086000BF00BF00BFBFF34F8F00BFF7
:1058100000BF00BF00BF00BF00BFBFF36F8F00BF5E
:1058200000BF00BF2E48006800F00100E0B3012077
:105830002C49086000BF2C4800680028FBD028488D
:10584000006820F001004FF01021C1F80C0200BFE9
:10585000254800680028FBD000202249086000BFCE
:10586000214800680028FBD000BF00BF00BF00BF78
:1058700000BFBFF34F8F00BF00BF00BF1148F0381B
:10588000006800F4E06019490843001D0D49F03933
:10589000086000BF00BF00BFBFF34F8F00BF00BF55
:1058A00000BF00BF00BFFDE7FFE7FFF7E3FE10BD4D
:1058B00024030010403501400DF0ADBA00C0074090
:1058C0003C050040FCED00E00C010040105600409B
:1058D00020C5004024040010E40E004000040040F5
:1058E0000C12001004E5014000E401400000FA053C
:1058F00002E008C8121F08C1002AFAD17047704799
:10590000002001E001C1121F002AFBD170470000F6
:105910000146202908DA012088400A4A104008B1CF
:10592000012070470020FCE7402909DAA1F120009E
:10593000012202FA00F008B10120F2E70020F0E7AE
:105940000120EEE7FC06FFBD00BFEFF31081084623
:1059500072B6704730B58BB00446002009900A90AB
:105960000690079008900490059001900290039093
:105970006088ADF8040060680290208804AA06A937
:1059800004F0B5FC0546A07B18B915B128460BB04C
:1059900030BDA07B022803D10A2D01D10020F6E7FB
:1059A000A07B20B1012817D0022847D139E009A9EE
:1059B00006A804F0A7FC05460DB12846E7E7A28932
:1059C0000A99A068FEF7D5FA06A804F045FC05463A
:1059D0000DB12846DBE732E0A289D4E90101FEF7E8
:1059E000C8FAA189C81CC11700EB91718A100392F3
:1059F0002088ADF806000A2D05D101A906A804F0FB
:105A0000B4FC054604E001A906A804F0A1FC054683
:105A10000DB12846BBE70B480068401C09490860E7
:105A20000DE006A804F044FC05460DB12846AEE79B
:105A300004480068401C0349086000E000BF00BF44
:105A40000020A4E73022002002680B685A40026060
:105A500042684B685A40426082688B685A40826054
:105A6000C268CB685A40C2607047014601F003002B
:105A700008B9012070470020FCE710B50346D8683C
:105A8000884206D88818401E1C69A04201D801200F
:105A900010BD0020FCE7000010B504466CB10848BA
:105AA000C068A04209D806480069A04205D3204634
:105AB00005F0A4F908B1012010BD0020FCE70000AA
:105AC000B822002010B5044614B1012C0AD105E01B
:105AD000002004F0A1FF03F0CFFE03E0012004F05A
:105AE0009BFF00BF00BF10BD38B50021684603F022
:105AF000B9F804460A2C07D14FF47A70ADF80000CB
:105B000000208DF8020008E000BF254625B100BF47
:105B1000284600F0B5FA00BF00BF9DF80230BDF87E
:105B2000002003490878034902F068FE38BD0000F0
:105B3000DC2F0020C55A02002DE9F041804603F019
:105B400071FF90F84001002802DD002000F03AF8D3
:105B50001348007808B3134800884FF40041A0FBB5
:105B600001204FF4FA73D61840F100015A000023C7
:105B70003046FEF7CDF90546002229460A4800685E
:105B800000F0A8FB044600BF254625B100BF28460B
:105B900000F076FA00BF00BF00BFBDE8F081000052
:105BA000182200201022002020F1020010B5044825
:105BB000007810B902F0BEFE01E002F0B5FA10BDA7
:105BC000092200202DE9F84305462C462A4800EB1F
:105BD000840040788DF80100274810F8240008B1AF
:105BE000012000E000208DF800002448007868B310
:105BF000214890F82800012828DD1F4890F8280047
:105C0000401EA04222D91C4800EB840040884FF47B
:105C10000041A0FB01304FF4FA729F1840F10001DF
:105C2000520000233846FEF773F98146621C49464C
:105C30001348006800F04EFB064600BF374627B108
:105C400000BF384600F01CFA00BF00BF24B90D4861
:105C50000068401C0B490860684604F056FC30B1EF
:105C60000848006808F0C5FB08B9BDE8F883684635
:105C700005F056F800BFF8E73C2800201822002065
:105C800024F102001C22002000B595B00AA30FCB1E
:105C9000CDE91323CDE9110140220B4901A8FEF7FC
:105CA00068F90E2211A90DF11600FEF762F901A89C
:105CB00004F014F815B000BD1000016E6F72646935
:105CC0006373656D69000000A8F1020070B50646B7
:105CD000002404F0B3F80021304673DF0446112C91
:105CE00009D044B100BF254625B100BF284600F0C9
:105CF000C7F900BF00BF70BD70B574DF0446082C43
:105D000008D000BF254625B100BF284600F0B8F9ED
:105D100000BF00BF02F0D4FE70BD00002DE9FF41BE
:105D2000054603F07FFE064674DF0446082C08D0C3
:105D300000BF274627B100BF384600F0A1F900BFD9
:105D400000BF2878A0B9697806EB811191F90100AC
:105D500077DF044600BF274627B100BF384600F072
:105D60008FF900BF00BF6878002102F020FD17E026
:105D70002878012814D196F84C1106EB811191F97D
:105D8000010077DF044600BF274627B100BF384631
:105D900000F076F900BF00BF6878012102F007FD2E
:105DA000002004F0B1FF054802780121684604F0A4
:105DB000A9FD6846FFF78AFFBDE8FF8109220020A0
:105DC00070B586B003F02EFE0446182216496846C8
:105DD000FEF7CFF815480088ADF8000094F84001B0
:105DE0008DF8020004F5A170019094F841018DF83E
:105DF000080004F24710039094F84D018DF810004C
:105E000094F84C018DF81100684602F0B1FD05468A
:105E100000BF2E4626B100BF304600F031F900BF6A
:105E200000BF06B070BD000028F102001022002063
:105E30000146C87800F0040008B907207047002028
:105E4000FCE710B501220221002000F0E7FE044625
:105E500000BF1CB1072C01D0204610BD00BF072297
:105E60000221012000F0DAFE044600BF1CB1072C1D
:105E700001D02046F1E700BF0A220021084600F0C9
:105E8000CDFE044600BF1CB1072C01D02046E4E73C
:105E900000BF0020E1E700002DE9F74F84B0814604
:105EA0008B460420039006988708D9F80000401C10
:105EB00003994843029009F10408002406E00BEB23
:105EC000840007F0CFF948F82400641CBC42F6D3E4
:105ED0004FF0010A00252DE0601E58F82060BD42F9
:105EE00002D10AF1010A00259DB93046082100FAC5
:105EF00001F2C1F1200320FA03F31A4310491046BE
:105F0000019208F05DF80F4911F80A1080EA016665
:105F100008E0062F06D9042D04D10949304608F0BF
:105F20004FF80646E01B58F82000704048F824005F
:105F3000641C6D1C02988442CED307B0BDE8F08F7C
:105F400000EF020000F0020010B50446022000F04D
:105F500081FD10BD10B5002407E00749096811F85C
:105F60003400012105F0B8FD641C04480078844227
:105F7000F3D3002010BD0000CC210020D021002050
:105F80002DE9F84306460C461746052F02D2072096
:105F9000BDE8F88305F09EFE38B905F06BFE0546B6
:105FA00000BF0DB12846F3E700BF1648066016484B
:105FB00004701648076000201549086015490860FC
:105FC00015E006EBC40814480068009098F8020039
:105FD0008DF8010098F80000104A694605F0D2FDDE
:105FE000054600BF0DB12846D2E700BF00BF200024
:105FF000A4F10101CCB2E4D1094A0021094800F022
:106000001DF9C5E7CC210020D0210020D42100209B
:10601000D8210020DC210020FCEE020099A902001A
:1060200091820200F8EE020000BF1348006800F001
:10603000010000B100BE00BF00BF00BF00BF00BF35
:1060400000BFBFF34F8F00BF00BF00BF0A48E43856
:10605000006800F4E06009490843001D0649E4397E
:10606000086000BF00BF00BFBFF34F8F00BF00BF7D
:1060700000BF00BF00BFFDE7F0ED00E00000FA0543
:106080003EB50446002000900190029002946A46BA
:10609000002144F20100FFF7C7FF3EBD2DE9F843A0
:1060A00007460C46904626480088844244DC4FF65A
:1060B000FF7500200090684600F04EF900BF2148AF
:1060C00090F800902048007805F064F9484501D127
:1060D000012000E0002030B91B480578007805F069
:1060E00059F9194908709DF8000000F03BF94FF686
:1060F000FF7085421ED01548006840F835808FB18A
:10610000002C0FDD124909680D4A128805FB0210A8
:1061100022463946FDF72DFF0C48006800EBC5000C
:10612000848005E000200949096801EBC5018880E9
:10613000002600E0042600E009263046BDE8F8838A
:10614000EA210020E8210020E9210020E0210020B0
:10615000E42100202DE9F0411AE0164804781648A1
:1061600000681649098804FB01051548006800EB22
:10617000C40086881248006850F8347031462846BA
:10618000B8470C48007805F005F90A49087000BFC7
:1061900000BF002058B900BF0649087809490978AE
:1061A000814201D1012100E000210029D5D0BDE8C4
:1061B000F0810000E8210020E4210020EA210020F5
:1061C000E0210020E921002030B50346481C4FF6AD
:1061D000FF7505EAC004104600F003050DB901255E
:1061E00000E000250DB9072030BD084802601019F5
:1061F000074D28600020074D2870074D287007487C
:106200000380074801800020EEE70000E021002025
:10621000E4210020E9210020E8210020EA210020DB
:10622000EC21002070B504460D462946204607F0B3
:1062300055FF70BD10B507F0A1FA10BD10B50346AB
:106240000C4600BF0B48807808B9082010BD00BF7D
:106250000AB90720FAE70BB90720F7E71868007CAE
:1062600008B10820F2E71968002008744C744A61EC
:1062700000BFEBE7E426002010B507F0AFFA0020DE
:106280000F49087048700B20887000200D49086085
:106290000D4908700D4908701420FFF71BF80721FD
:1062A0001420FFF73BF81420FFF720F8002007F038
:1062B0006BFA07F063FA06490860002010BD000081
:1062C000E4260020F02100200022002001220020EE
:1062D000F42100202DE9F04104460E4617462546DC
:1062E00000BF1048807810B90820BDE8F08100BFD9
:1062F0000CB90820F9E7052E01D20720F5E76869F7
:1063000008B90820F1E7687C012801D1304600E097
:10631000002080463B4642463146284607F0BAFFF9
:10632000E3E70000E426002070B50446254600BFE0
:106330000848807808B9082070BD00BF0CB16869B2
:1063400008B90820F8E7002028740221284607F041
:10635000D0FFF1E7E426002010B50446204607F000
:1063600013FB10BD70B5044625460E488068B0B1D9
:10637000ADB9FFF7E9FA06460A4800680A4908601D
:10638000084840684FF0E021C1F8040100200549A9
:1063900088601EB900BF62B600BF00BF00BF00BF6B
:1063A00070BD0000F027002000E100E0F8B50546D0
:1063B0000C4617462088001DB84201D90C20F8BDB4
:1063C000684679DF064600BF0EB13046F7E700BFEA
:1063D0000320218868542088401C208019202188AF
:1063E00068542088401C208020884119BDF8000096
:1063F00008F02BF82188084420800020DFE72DE9F1
:10640000FC41044688461646002537880020308027
:1064100094F82D0058B13A463146404600F03EF916
:10642000054600BF15B12846BDE8FC8100BFA07835
:1064300050B13A4631464046FFF7B8FF054600BF27
:106440000DB12846F0E700BFE07860B1E17848B2CE
:106450003B463246414604F021F8054600BF0DB1E7
:106460002846E1E700BF606868B1616891F9000003
:106470003B463246414607F0C7FF054600BF0DB117
:106480002846D1E700BF208900280EDD43460622BA
:10649000022104F10800CDE9006708F0B3F80546D1
:1064A00000BF0DB12846BFE700BF208A00280EDDDF
:1064B00043460722032104F11000CDE9006708F0EC
:1064C000A1F8054600BF0DB12846ADE700BF208BFF
:1064D00000280EDD43461522142104F11800CDE9F1
:1064E000006708F08FF8054600BF0DB128469BE70E
:1064F00000BF206A58B13B4632464146206A01F04F
:1065000090FD054600BF0DB128468DE700BF606ACB
:1065100058B13B4632464146606A04F031FE0546BA
:1065200000BF0DB128467FE700BF94F82C0000287B
:106530000BDD3B4632464146204607F00FFC054640
:1065400000BF0DB128466FE700BF207858B13B4629
:1065500032464146204604F08EFE054600BF0DB18E
:10656000284661E700BF28465EE72DE9F04192B07A
:1065700080460D461F2011901090B8F1000F17D0E3
:106580004046FFF755FC044600BF1CB1204612B040
:10659000BDE8F08100BF11AA08A94046FFF72FFF10
:1065A000044600BF0CB12046F1E700BF08AE02E090
:1065B000002600201190ADB1284607F0DFFC04460C
:1065C00000BF0CB12046E2E700BF10AA694628468A
:1065D000FFF715FF044600BF0CB12046D7E700BF08
:1065E0006F4602E0002700201090BDF84000C3B2C3
:1065F000BDF84400C1B23A46304672DFC7E700003A
:106600002DE9F041044600BF14B90E20BDE8F08129
:1066100000BF1C2221461C48FDF7ABFC1B481A4951
:106620000860206860B120687ADF05460DB1284611
:10663000ECE7164821680A6802604968416005E095
:1066400012487BDF05460DB12846DFE7002617E03C
:1066500006EB86000E4901EB800700BF4FF6FF7086
:10666000388000BF0B4800EB461078600A4A0021D2
:10667000381DFFF7E3FD05460DB10320C6E7761C84
:10668000002EE5D00020C1E730240020A821002002
:106690001C240020FC2300200DE502002DE9FC4114
:1066A00005460C46174620880930B84202D90C200E
:1066B000BDE8FC8168466DDF064600BF0EB130467E
:1066C000F6E700BF0820218868542088401C2080FD
:1066D0001B20218868542088401C20802088284462
:1066E000DDF801100160BDF8051081802088801D53
:1066F00020809DF80000400818B9002021886854C7
:1067000002E00120218868542088401C208000205D
:10671000CEE7000030B58DB023A207CA01AB07C396
:106720000F2104A8FDF73EFC00208DF81000052085
:106730008DF811008DF8120002208DF813000F2043
:10674000ADF814000198CDF816000298CDF81A00A3
:106750009DF80C008DF81E004FF47A70ADF8200003
:1067600000208DF823008DF822008DF824000120F0
:106770008DF8250000200A900B900C900D480B908E
:106780000D480C9004A80A900AA90C4804F088FE51
:10679000044600BF254625B100BF2846FFF770FC20
:1067A00000BF00BF0DB030BDD8ECF0F4F8FC000322
:1067B00004000000AD8E0200018E0200DC2F0020DC
:1067C000F8B505460F46288813280AD004DC10289F
:1067D00027D0112840D12BE021282DD052283BD1A1
:1067E0000FE0A88800231A4685217FDF044600BFFA
:1067F000264626B100BF3046FFF742FC00BF00BF6F
:106800002BE0A88800231A461946A9DF044600BFDA
:10681000264626B100BF3046FFF732FC00BF00BF5E
:106820001BE0012000F038F9022000F02BF914E001
:10683000012000F027F910E000200090A8886946A8
:106840008FDF044600BF264626B100BF3046FFF763
:1068500017FC00BF00BF00E000BF00BFF8BD000094
:1068600070B505460E462888102802D011282CD174
:1068700015E01748006860B901F086FC044600BFC7
:1068800034B11448006818B1204612490968884795
:1068900000BF0F480068401C0D49086016E00C4816
:1068A0000068401E0A4908600846006860B9FFF7A2
:1068B000C8FA044600BF34B10648006818B1204643
:1068C00004490968884700BF00E000BF00BF70BDF1
:1068D000A4210020A021002070B504460D46208888
:1068E000102806D0112808D012280ED0502810D118
:1068F00007E0204605F0DEFE0CE0204605F09AFF9A
:1069000008E0204606F07AF904E0204605F0BAFED9
:1069100000E000BF00BF70BD70B504460E46208881
:10692000102804D011281DD01A2840D11EE006F0EE
:10693000CFFEA08806F056FD20B900BF0420FFF767
:106940009FFB0EE0E07B022801D1012000E0002047
:106950000546A2882B461749A1F1480007F030F9F7
:1069600000BF24E0A08806F0D5FE20E0207A0121B7
:10697000B1EB101F01DA012000E000200346A288DD
:106980000C49091DA1F14C0007F01AF9207A0221E7
:10699000B1EB101F01DA012000E000200346A288BD
:1069A00004490831A1F1500007F00AF900BF00BF07
:1069B00070BD00009824002070B50446204607F002
:1069C0003EFD054605F0010070BD7FB505F018FDE0
:1069D000044600BF254625B100BF2846FFF750FBFF
:1069E00000BF00BF0020039003A805F099FC0446F7
:1069F00000BF254625B100BF2846FFF741FB00BF79
:106A000000BF002000900190029001208DF800004E
:106A100000208DF801008DF8020069464020039A9D
:106A200069DF044600BF254625B100BF2846FFF7B1
:106A300027FB00BF00BF03A805F07EFC044600BF93
:106A4000254625B100BF2846FFF71AFB00BF00BF4F
:106A50007FBD000010B502460949885C00BF4FF0B9
:106A6000A0442146D1F80435012484409C43C1F858
:106A70000845012484401C40C1F80C4500BF10BDEE
:106A800048EA020010B504460249085D012105F0FC
:106A90007CFB10BD48EA020010B504460249085DBF
:106AA000002105F072FB10BD48EA020010B5014656
:106AB000094B585C00BF4FF0A044234600BFD3F8F9
:106AC0000445C44004F001040CB1012000E00020A2
:106AD000024682F0010010BD48EA02007CB50024A5
:106AE0000CE00948055D0020009003460122114694
:106AF0000190284605F0FCFA00BF641C042CF0D37A
:106B000000F004F87CBD000048EA020010B5002443
:106B100003E02046FFF7B6FF641C042CF9D310BD38
:106B200010B5002403E02046FFF7B6FF641C042CD8
:106B3000F9D310BD02464FF0FF30002106E0054BAF
:106B40005B5C934201D1084602E0491C0429F6D35C
:106B500000BF70474CEA02002DE9F04106460F469F
:106B60004FF0000800243046FFF7E4FF0446042CF1
:106B70003ED20FB3012F02D0022F38D130E004EB08
:106B80004400214911F8008004EB44000844407897
:106B900050B11E4A4FF400411D480068FFF79AFBB0
:106BA00005460DB91948067004EB4400164908441F
:106BB0008078184908551AE015480068FFF7B4FBBB
:106BC0001448005D04EB44010F4A1144897888425F
:106BD00005D104EB44001146084490F8028006E019
:106BE00004EB44000849084490F8018000BF00BF4E
:106BF000B8F1000F06D00848006818B140460649B1
:106C000009688847BDE8F081D02300209821002042
:106C100058EA0200992100209421002030B5034653
:106C20000020042B23D2012A07D1012903D103F12B
:106C30000E04E4B200E00024224679B1012902D01A
:106C4000022911D104E003EB43040A4D2A550DE05B
:106C500003EB4304074D2C44627007E003EB43044D
:106C6000044D2C44A27001E0072000BF00E0072083
:106C700030BD0000D02300202DE9F04105460F462D
:106C800000241F4805601F48076005F0020000B39C
:106C9000002606E0012211463046FFF7BFFF0446FA
:106CA000761C042E01D2002CF4D034B940F2666276
:106CB00004211548FFF764F9044614B9FFF74AF9AF
:106CC00004462CB9114A00211148FFF7B7FA0446CF
:106CD00000BF05F0010008B1FFF700FF2CB90D4A15
:106CE00000210D48FFF7AAFA04462CB90B4A0121EE
:106CF0000B48FFF7A3FA04462046BDE8F0810000E8
:106D00008C210020942100205CEA0200F97002002E
:106D100058EA020061AE020050EA0200495F020038
:106D200054EA02002DE9F047044600260025D74822
:106D3000007820B10020D549087004F07DF8182CA7
:106D400079D2DFE804F00C11124579ADF1FFEEEDD8
:106D5000ECEBEAE9E8E7E6E5E4E3E2E1E0DF04F0B2
:106D60006BF8CB4804708DE100BF0020FFF79EFE5A
:106D700058B10020FFF786FE022C02D14FF4E160EB
:106D800001E04FF47A60054609E00020FFF784FE39
:106D9000022C01D1C82001E04FF4C8700546BC4860
:106DA00004704FF40040A5FB00204FF4FA73D7188D
:106DB00040F100015A0000233846FDF7A9F881464A
:106DC00000224946B3480068FFF784FA064659E1B5
:106DD0000020FFF76BFE58B10020FFF753FE032C95
:106DE00002D14FF4487001E04FF47A60054609E0A3
:106DF0000020FFF751FE032C01D1C82001E04FF421
:106E0000C8700546A24804704FF40040A5FB00205E
:106E10004FF4FA73D71840F100015A0000233846A6
:106E2000FDF776F88146002249469A480068FFF748
:106E300051FA064626E124E10020FFF737FE58B15B
:106E40000020FFF71FFE042C02D14FF47A6001E00E
:106E50004FF47A6005460AE00020FFF71DFE042C7F
:106E600002D14FF4C87001E04FF4C870054688485D
:106E700004704FF40040A5FB00104FF4FA73CF18D4
:106E800040F100015A0000233846FDF741F88146E1
:106E9000002249467F480068FFF71CFA0646F1E0E9
:106EA0000020FFF703FE50B10020FFF7EBFD052C9B
:106EB00001D1C82001E04FF47A60054609E00020C6
:106EC000FFF7EAFD052C01D1C82001E04FF4C8709E
:106ED00005466F4804704FF40040A5FB00204FF4B6
:106EE000FA73D71840F100015A0000233846FDF725
:106EF0000FF881460022494666480068FFF7EAF924
:106F00000646BFE0B8E0B6E0AAE0A1E098E092E073
:106F10005FE05DE05BE059E057E051E042E033E0E4
:106F200024E015E00EE0FFE70020FFF793FD58484E
:106F30000470002240F6CD4156480068FFF7CAF9B8
:106F400006469FE00020FFF7A7FD5148047099E036
:106F500001204E490870FFF77DFD002240F6CD412B
:106F60004C480068FFF7B6F906468BE00120474918
:106F70000870FFF76FFD00224FF48041454800681C
:106F8000FFF7A8F906467DE0012040490870FFF7A9
:106F900061FD002240F6CD413E480068FFF79AF9B6
:106FA00006466FE0012039490870FFF753FD0022C3
:106FB0004FF4804137480068FFF78CF9064661E0DE
:106FC000FFF7AEFD324804705CE000BF00BF00BFB9
:106FD00000BF31480068FFF7A7F90646C4F1110564
:106FE00015B30EBB012D18D9A8B2C82148434FF4E0
:106FF000004180FB01304FF4FA729F1840F100010C
:10700000520000233846FCF783FF814600224946A0
:1070100021480068FFF75EF906460220FFF73CFDB5
:1070200001201E49087005E00220FFF72BFD00201B
:107030001A49087026E003F0FFFE1548047021E0AD
:1070400003F0FAFE0020FFF727FD1148047019E055
:1070500003F0F2FE0120FFF71FFD0D48047011E060
:1070600003F0EAFE0020FFF717FD0120FFF714FDF3
:107070000748047006E000BFFFF752FD04480470A3
:1070800000E000BF00BF3046BDE8F0878921002046
:107090008821002050EA020054EA020090210020DA
:1070A00070B504460D46012D03D10D2C01D104F01D
:1070B000F3F970BD70B5012640F6CD4201210D48AF
:1070C000FEF75EFF044600BF254625B100BF2846F7
:1070D000FEF7D6FF00BF00BFFEF73CFF044600BF2F
:1070E000254625B100BF2846FEF7CAFF00BF00BFF6
:1070F00070BD00008021002010B5044620780221D8
:10710000FFF72AFD10BD2DE9FF4104460D46164646
:1071100000BF20680A2807D020680C2804D0206807
:107120000E2801D0AFF3008000BF284606F09AF881
:107130000090281D06F096F8019005F1080006F071
:1071400091F8029005F10C0006F08CF8039020688D
:107150008100201D00EB810739466846FEF774FC6C
:10716000103F2068A0F101080FE0684603F06BFDB6
:10717000684603F0AFFD39466846FEF765FC684691
:1071800003F04EFD103FA8F10108B8F1000FECD15B
:10719000684603F058FD684603F09CFD3946684692
:1071A000FEF752FC3146009807F0E2FA311D0198D3
:1071B00007F0DEFA06F10801029807F0D9FA06F1A5
:1071C0000C01039807F0D4FABDE8FF812DE9FF41D7
:1071D00004460D46164600BF20680A2807D02068DE
:1071E0000C2804D020680E2801D0AFF3008000BF27
:1071F000284606F037F80090281D06F033F8019075
:1072000005F1080006F02EF8029005F10C0006F0DA
:1072100029F80390271D39466846FEF715FC1037FC
:107220004FF001080FE0684606F0B0FE684606F031
:107230003BFE684604F00CF839466846FEF704FC4D
:10724000103708F1010820684045ECD8684606F080
:107250009DFE684606F028FE39466846FEF7F4FBB8
:107260003146009807F084FA311D019807F080FA42
:1072700006F10801029807F07BFA06F10C01039869
:1072800007F076FABDE8FF8170B504460E46154654
:10729000F4212046FCF786FE102D04D0182D0AD0CC
:1072A000202D18D10FE00A2020602A4631462046C2
:1072B000FEF7F2FD11E00C2020602A463146204600
:1072C000FEF7EAFD09E00E2020602A4631462046FE
:1072D000FEF7E2FD01E0AFF3008000BF70BD2DE9D5
:1072E000F84F80460C4615469A46DDE90A9B002079
:1072F000009023E02668A81B484501D9484600E0D5
:10730000A81B0746009828B908EB060052463946E4
:10731000FCF741FE1EB9AF4201D101200090F019E7
:10732000A84205D141460C98D8470020206002E0D1
:10733000206838442060A9EB070900BFB9F1000FAD
:10734000D8D1BDE8F88F2DE9FF4784B08046894643
:107350009246109FDDE91264149D26B1012E03D0E0
:10736000022E24D110E04CE09DF81C009DF8441042
:1073700048400790012007AB524649468DE831004E
:10738000404600F042F83CE0012007AB5246494637
:107390008DE83100404600F038F8012011AB52462C
:1073A00049468DE83100404600F02FF829E00120E1
:1073B00007AB524649468DE83100404600F025F8BB
:1073C0009DF84400B84212D0B01E3B465246494692
:1073D0008DE831004046FFF782FF012011AB524695
:1073E00049468DE83100404600F00FF808E0701E75
:1073F0003B46524649468DE831004046FFF76FFF55
:1074000000BF00BF08B0BDE8F0872DE9FF47054683
:107410000E4617469846DDE90D4ADDF83090CDE975
:10742000009443463A4631462846CDE9024A00F0E8
:1074300002F8BDE8FF872DE9F84F07460C461646CF
:107440009A46DDE90A5BD04600BF17B12068B0421A
:1074500001D3AFF3008000BF00BFBAF1000F02D12B
:107460000DB1AFF3008000BF00BFBBF1000F01D032
:107470000D9808B9AFF3008000BF206828B325B38A
:107480002068301A00900098A84201D2009800E0CD
:10749000284681462168C8194A464146FCF769FDDD
:1074A000C844A5EB09052068484420602068B04224
:1074B0000AD125B93946DDE90C20904702E039466A
:1074C0000D98D8470020206000BF11E000BF206861
:1074D00008B1AFF3008000BFB54204D14146DDE9F9
:1074E0000C20904702E041460D98D847B044AD1BB0
:1074F000B542EBD21DE02068301A00900098A842F7
:1075000001D2009800E0284681462168C8194A4601
:107510004146FCF72EFDC844A5EB09052068484408
:10752000206000BF2068B04201D3AFF3008000BFED
:1075300000BF002DDFD1BDE8F88F2DE9FE4F0646D4
:107540000C4617469946DDE90D8ACDF808900C984F
:10755000019000BF16B12068B84201D3AFF300809C
:1075600000BF00BFB9F1000F04D1B8F1000F01D086
:10757000AFF3008000BF00BFBAF1000F01D00F9839
:1075800008B9AFF3008000BF2EE0206818B931467B
:107590000F98D04727602068381A0090206840452F
:1075A00001D2216800E041460D469DE80D0006EB42
:1075B000000C2946002008E013F800B01CF800E099
:1075C0008BEA0E0B02F800B0401C8842F4D300BFD7
:1075D0002068401B2060A8EB050801982844019012
:1075E00002982844029000BFB8F1000FCDD1BDE849
:1075F000FE8F2DE9FF4104460F4616469846206847
:10760000056815E02B4604F108023946684607F084
:1076100005FAD4E9001004F108024B68694698475E
:107620002A4604F108013046FCF7A3FC2F442E44FF
:107630005FEA0800A8F10108E4D1BDE8FF812DE967
:10764000F04104460D4616461F46256066603946E1
:1076500004F108002A68FCF78CFCBDE8F08170B5E5
:1076600088B004460D46164600BF2868102801D091
:10767000AFF3008000BF2821204603F0C7FD04A817
:10768000296803F0C3FD04AA04A930466B68984733
:10769000694604A800F058F96946684600F02EF9DA
:1076A00004F10801684600F065F96946684600F093
:1076B00025F904F11801684600F05CF92560666060
:1076C00008B070BD70B504460D4600BFA06D08B986
:1076D000AFF3008000BF206804F130010268284643
:1076E000FCF747FC70BD70B504460D4616463246A1
:1076F00029462046FFF7B3FF204600F001F870BD91
:107700001FB50446002000900190029003906B4644
:1077100004F12800D4E90012FFF791FF102104F1D1
:10772000400003F073FD002020656065A0651FBD6B
:107730002DE9F04F87B004460E4615461F462068D7
:10774000D0F80080DFF8A8A00020069067B394F876
:107750005000284400F00F0008B9012000E000208C
:1077600083462DB9206D18B9606D08B9012000E07D
:107770000020814600BFA06D08B1AFF3008000BFBC
:1077800000BF25B9B9F1000F01D1AFF3008000BFF0
:10779000BBF1000F05D0B9F1000F02D1DFF854A002
:1077A00001E00120069000BF11483346424604F133
:1077B0005001CDE902A4CDE9005004F14000FFF7EB
:1077C0003AFE069888B10C49206DA8EB0000002213
:1077D000CDE901208023CDE903140092424604F153
:1077E000500104F14000FFF7AEFD07B0BDE8F08F97
:1077F0001F7D0200917D0200AB7D02002DE9FF415B
:1078000004460D4616461F460748CDE90067CDE9F8
:10781000020420682B4604F12801026804F11800D4
:10782000FFF78BFEBDE8FF81DD8102002DE9F0410D
:1078300004460D4616461F4634212046FCF7B2FB8F
:107840000020E06228682063256066600020A06256
:10785000394604F108002A68FCF78BFBBDE8F0818B
:107860002DE9F04FB1B004460D4616469846DDE9C5
:107870003BABDDF8E890409F2A4621460EA8FFF773
:1078800032FF2DA800905A4600210EA83D9B00F023
:1078900013FA29A853464A46012100900EA800F089
:1078A0000BFA2DAB2A46214601A8FFF7BFFF43463E
:1078B000314601A83E9AFFF7A1FF25A84346009054
:1078C00002210EA83E9A00F0F7F900BF2068B842E6
:1078D00001D2AFF3008000BF00200AE02DA9095CAF
:1078E00025AA125C514029AA125C51403F9A1154BA
:1078F000401CB842F2D331B0BDE8F08FF8B506466F
:107900000D4610A0006800900027F46847EA440084
:10791000E860E70FB46847EA4400A860E70F7468BE
:1079200047EA44006860E70F346847EA440028608B
:10793000E70F02226946384606F04FF9E9684840E9
:10794000E860F8BD0087000070B505460C46284683
:1079500005F094FC2060281D05F090FC606005F1A6
:10796000080005F08BFCA06005F10C0005F086FC1A
:10797000E06070BD70B504460D462946206806F0EB
:1079800002FF291D606806F0FEFE05F10801A068EF
:1079900006F0F9FE05F10C01E06806F0F4FE70BD9A
:1079A0004FF0FF31054A42F82010082804DBFF237E
:1079B000A0F1080150325354704700008C2500207C
:1079C0000146024850F82100704700008C25002035
:1079D0002DE9F04F03460C464FF0FF390AB1002065
:1079E00000E0082084460AB1082000E00C20804610
:1079F000614624E0154850F82100401CF0B91D46AE
:107A00000846274616464FFA80FBDFF840A00AF1E9
:107A1000300A0AF805B0DFF834A04AF820704EB9F1
:107A20004FFA85FBA0F1080ADFF820E00EF1500EB6
:107A30000EF80AB000BF4FFA81F902E0491C414537
:107A4000D8D300BF4846BDE8F08F00008C25002049
:107A50000146014840567047BC2500202DE9F04101
:107A60008EB004460D4616461F4600BF1CB90E20B8
:107A70000EB0BDE8F08100BF00BF0DB90E20F7E7E2
:107A800000BF00BF0EB90E20F2E700BF00BF0FB964
:107A90000E20EDE700BF1C2107A8FCF783FA142194
:107AA00002A8FCF77FFA002001900090A07800F077
:107AB0000100B0B19DF81C0020F00200801C8DF880
:107AC0001C0000BF9DF8000020F00F00401C8DF846
:107AD00000009DF8000020F0F00010308DF800004C
:107AE0000DE000BF9DF8000020F00F008DF80000B1
:107AF0009DF8000020F0F0008DF8000000BFA07895
:107B0000C0F34000B8B100BF9DF8010020F00F00A5
:107B1000401C8DF801009DF8010020F0F0001030AD
:107B20008DF8010000BF9DF81C0020F0080008300F
:107B30008DF81C000DE000BF9DF8010020F00F0043
:107B40008DF801009DF8010020F0F0008DF8010093
:107B500000BF28788DF806002088ADF80400A078D2
:107B600041099DF8020061F342008DF80200A078FF
:107B700081089DF8020061F3C3008DF80200A0782F
:107B8000C1089DF8020061F304108DF80200A0788E
:107B900001099DF8020061F300008DF8020001A8C0
:107BA0000290CDF80CD0E078ADF810000696207960
:107BB000ADF8140068883B4602AA07A9A2DF8046F8
:107BC000B8F1000F10D138880849094A127821F815
:107BD00022002088064A127801EB8201488004487E
:107BE0000078401C02490870404641E70425002007
:107BF000B021002010B5044614B1012009490870D5
:107C0000094800884FF6FF71884200D010BD054832
:107C1000007820B100200349087003F08DFB00BFFD
:107C2000F4E700009C2200209422002010B50446B6
:107C300004EB4400C0EB4410124901EB8000B0F8A3
:107C4000680080B210B9204606F0E2F904EB440067
:107C5000C0EB44100B4901EB8000826E04EB440042
:107C6000C0EB441001EB800090F86C00401E022134
:107C70008140B2FBF1F001FB102010B9204600F06A
:107C80004DFB10BDE829002070B505460DB9094C23
:107C900001E0084C083409E0204603F0B7F8064636
:107CA00006B904E028467168884700BFF4E700BFC2
:107CB00070BD0000802500202DE9FF4706460F46D5
:107CC00090461D46DDF830903068046800BF0CB95E
:107CD000AFF3008000BF21466846FCF763F9601EE1
:107CE0000DF800703046FFF70BFD65B1002322460A
:107CF00069463046FFF71CFD01232A4641463046BF
:107D0000FFF716FD05E00123224669463046FFF7DE
:107D10000FFD49463046FFF7D5FCBDE8FF877FB52C
:107D200004460E46254601236A46314605F12800E1
:107D3000FFF75FFC2968686D0968084468657FBDC6
:107D40002DE9F04188B004460D46164604A92B469D
:107D5000374620680268002008E013F800C017F8D2
:107D600000808CEA080C01F800C0401C9042F4D35B
:107D700000BF01236A4604A904F12800FFF739FC7B
:107D80002168606D09680844606508B0BDE8F0814D
:107D900070B504460E46254605F1080231462846D0
:107DA000FFF7CEFF0120A86570BD70B504460E46F2
:107DB000254605F1180231462846FFF7C1FF01208C
:107DC000A86570BD2DE9F04782461E48006800286E
:107DD00036D01C480068056805F0D0FC07461A48F4
:107DE00004682146384606F079F9C61C1748007821
:107DF00008B905F0D5FCAE4201D2284600E0304675
:107E0000044424F07F44204605F0B2FC05F0B6FCA3
:107E100080463946404606F061F900F103093946CB
:107E2000204606F05BF9814509D905F0A7FC81469B
:107E300005F09EFC2F2003F085FD06F0C7FA00BF79
:107E4000BDE8F087F0210020F4210020022200206C
:107E50002DE9F04106460D461446002731461848E4
:107E600001F04CFE074617B1304601F01DFB2078AB
:107E7000302808D000BF4FF0080800BF0820FEF7E8
:107E8000FFF800BF00BF222D06D194F82120611C0D
:107E9000304601F053FA10E0122D05D1627C611CCE
:107EA000304601F0EDFB08E000BF4FF0070800BFCF
:107EB0000720FEF7E5F800BF00BFBDE8F081000035
:107EC0006C2C00202DE9F04104460E46154628781A
:107ED000202805D1264890F84D0108B1BDE8F08171
:107EE0002A7800232146224801F057FE29782048AD
:107EF00000EB841080F826101D4800EB841100EB85
:107F0000841090F826008874194800EB841000F162
:107F10001407174800EB841090F8260020B11028B1
:107F200003D0202820D111E000BF3246691C38461A
:107F3000FCF71FF80021204605F05CFF701CC1B261
:107F40000B4800EB841080F827100EE0084901EB85
:107F5000841101F1120001F0B3FF0E21044800EB7F
:107F6000841080F8271000E000BF00BF00BFB5E715
:107F70006C2C00202DE9F04104460E4690463078E6
:107F8000401EC7B200251BE0605D404517D1BD42D1
:107F90000ED2284603E0411C615C2154401CB842CB
:107FA000F9D3C7F10501E019AB22FBF7F4FF01E0BB
:107FB000AB2060553078401E3070BDE8F0816D1CFC
:107FC000052DE1D300BFF8E701460888062808DB45
:107FD0000888B0F5486F06DD08884FF6FF729042BA
:107FE00001D0072070474888062808DB4888B0F58C
:107FF000486F06DD48884FF6FF72904201D0072097
:10800000F0E708884FF6FF72904208D04888904207
:1080100005D008884A88904201DD0720E2E7002069
:10802000E0E72DE9F04106460D46144698462088C3
:10803000801D404502D90C20BDE8F0813046FFF795
:10804000C3FF074600BF0FB13846F5E700BF052064
:10805000218868542088401C208012202188685480
:108060002088401C208022885119308806F0EDF9C4
:1080700021880844208022885119708806F0E5F98B
:108080002188084420800020D6E730B587B01C2125
:108090006846FBF787FF002000904FF420300190E6
:1080A0004FF47020029003208DF80C000020ADF8F2
:1080B0000E008DF810006846FEF7A2FA044600BFD5
:1080C000254625B100BF2846FDF7DAFF00BF00BFF7
:1080D00007B030BDF8B505460C46607A88B9207AFD
:1080E00010B91048476801E00E4887682A463946AB
:1080F0006068FEF7EFF8064616B1304605F0E0FD81
:108100000EE0002020720748406948B101208DF838
:108110000000ADF80250034841696846884700BF37
:10812000F8BD00003024002000B595B01348006869
:108130000190134800788DF806003C2102A8FBF757
:1081400031FF02208DF8080000208DF80A00012080
:10815000ADF8180001A9079102A800F021FB094819
:108160000278002111A802F0CDFB11A8FDF7AEFDA9
:10817000012002F0C9FD15B000BD000018F1020099
:108180000A2200200922002010B501220021084601
:10819000FEF744FD044600BF1CB1072C01D0204669
:1081A00010BD00BF072202210120FEF737FD044663
:1081B00000BF1CB1072C01D02046F1E700BF04220C
:1081C00002210020FEF72AFD044600BF1CB1072C47
:1081D00001D02046E4E700BF0020E1E770B5044687
:1081E0000E462546D5E9001032464B6805F10801D8
:1081F000984705F10802EB6A9918286B401E08E0C1
:108200000A5C521CD2B20A5402B103E000B901E088
:10821000401EF5E770BD7CB504460D460020009079
:108220000190A81D00EBC4008079ADF80000A81DE6
:1082300000EBC4008079ADF80200002269462046B8
:1082400090DF06467CBD70B506460D460EB1012096
:1082500070BD287920B1012809D0022813D10FE080
:10826000284605F027F90446022028710DE028462B
:1082700002F09EF804460A2C01D141F61D5404E098
:1082800041F61D5401E00F2400BF00BF2046DFE788
:108290002DE9F0478146002532E01C48006800EBDC
:1082A000C5042178012000FA01F619480068304021
:1082B00020B317480068B04315490860207803F0E0
:1082C000CFFC074621780120884012490968084000
:1082D000217807FA01F188420FD16078012800D196
:1082E00000E00020784080F00108606820B108F0CC
:1082F000FF0120786268904700BF00BF681CC5B2CC
:10830000054800788542C8DBBDE8F087CC21002015
:10831000DC210020D8210020D021002070B50446A7
:1083200004EB4400C0EB4410454901EB8000002100
:10833000016441648164C16404EB4400C0EB4410F7
:108340003F4901EB800090F86C1004EB4400C0EB57
:1083500044103B4A02EB800080F84B1004EB4400D1
:10836000C0EB4410114601EB8000806E04EB440129
:10837000C1EB441102EB810191F86C10C84004EB91
:108380004401C1EB441102EB810191F86C1000FA39
:1083900001F5290E04EB4400C0EB441002EB800011
:1083A00080F84C10290C04EB4400C0EB441002EBA5
:1083B000800080F84D10290A04EB4400C0EB441003
:1083C00002EB800080F84E1004EB4400C0EB441038
:1083D00002EB800080F84F5004EB4403C3EB4413DE
:1083E000164606EB830303F1500204EB4403C3EB90
:1083F000441306EB830303F1300104EB4403C3EBA6
:10840000441306EB830303F14000FCF7BFF904EBD0
:108410004400C0EB4410314601EB800104EB440002
:10842000C0EB4410324602EB8000426D006DC1E9A2
:10843000180201212046034A1268904770BD0000CF
:10844000E82900205C220020014614480078144AE4
:10845000127890421DD011480078401C0F4A1070CD
:1084600010460078022801D1002010700D480B4AF8
:10847000127850F8220008600B4A0868126810440D
:10848000094A10601046006820F07F40106001200B
:1084900070470020086000BFFAE7000000220020BB
:1084A00001220020F8210020F4210020F8B5044624
:1084B0000D4617461E460F48807808B10820F8BDC3
:1084C000684604F0E7FD08B90420F8E701200099A8
:1084D0000871009804600098866007480068B5FB42
:1084E000F0F00099C8600098476104F0A1FE0020F8
:1084F000E5E70000A8220020E8F1020010B50446DC
:10850000D4E90321501828DF10BD0000134800787B
:10851000062820D11148001D007800F00F00D0B9C6
:108520000E480830007800F0F000302801D101201A
:1085300070470A480830007800F0F000402801D168
:108540000120F5E705480830007800F0F0005028D9
:1085500001D10120ECE70020EAE70000E00F00F085
:1085600013480078062820D11148001D007800F03B
:108570000F00D0B90E480830007800F0F000302825
:1085800001D1012070470A480830007800F0F0005F
:10859000402801D10120F5E705480830007800F0B7
:1085A000F000502801D10120ECE70020EAE70000AC
:1085B000E00F00F013480078062820D11148001D74
:1085C000007800F00F00D0B90E480830007800F0B5
:1085D000F000302801D1012070470A4808300078A7
:1085E00000F0F000402801D10120F5E705480830EF
:1085F000007800F0F000502801D10120ECE70020C5
:10860000EAE70000E00F00F00A48007806280ED1E3
:108610000848001D007800F00F0040B905480830F8
:10862000007800F0F000302801D1012070470020D0
:10863000FCE70000E00F00F013480078062820D186
:108640001148001D007800F00F00D0B90E48083026
:10865000007800F0F000302801D1012070470A486E
:108660000830007800F0F000402801D10120F5E743
:1086700005480830007800F0F000502801D10120B2
:10868000ECE70020EAE70000E00F00F00A4800787D
:1086900006280ED10848001D007800F00F0040B9F0
:1086A00005480830007800F0F000302801D10120A2
:1086B00070470020FCE70000E00F00F0134800784E
:1086C000062820D11148001D007800F00F00D0B915
:1086D0000E480830007800F0F000302801D1012069
:1086E00070470A480830007800F0F000402801D1B7
:1086F0000120F5E705480830007800F0F000502828
:1087000001D10120ECE70020EAE70000E00F00F0D3
:108710000A48007806280ED10848001D007800F0AD
:108720000F0040B905480830007800F0F00030280C
:1087300001D1012070470020FCE70000E00F00F0AD
:108740000A48007806280ED10848001D007800F07D
:108750000F0040B905480830007800F0F0003028DC
:1087600001D1012070470020FCE70000E00F00F07D
:108770000A48007806280ED10848001D007800F04D
:108780000F0040B905480830007800F0F00050288C
:1087900001D1012070470020FCE70000E00F00F04D
:1087A00010B504460021204601F01CFE10BD7CB52A
:1087B00004460E4600200090019001F033F9054672
:1087C0002EB1204601F000F995F84C4107E005EB89
:1087D000841090F82600202801D101F037FA05EB2B
:1087E00084101230019005EB841090F82700ADF84A
:1087F00000006946002001F0F5FD7CBD2DE9F04147
:1088000004460D4616461F46084804700848056091
:10881000002008490870084807700848068001F0E1
:1088200015FB074800F092F8BDE8F0810A2200200D
:108830000422002008220020092200200C2200200F
:108840001D5D020001480088704700000C220020D6
:108850002DE9F041054601F0E5F8044694F84101A0
:10886000002804DD94F84D0108B1012000E000204B
:10887000074637B194F840014FF4487110FB01F0FE
:1088800005E094F840014FF4FA7110FB01F086B254
:10889000B54201DD284600E030460649088008461A
:1088A000008844F62061884202DD084601490880BC
:1088B000BDE8F0810C22002010B504462088102865
:1088C00004D0112808D01B2816D10DE001200C4936
:1088D000087000F02FF810E0002009490870FDF73B
:1088E0000BFAFDF763F908E0207A20B90448007814
:1088F00008B9FDF75BF900E000BF00BF10BD000044
:10890000082200200148007870470000092200205A
:1089100001490870704700000922002010B5044882
:10892000007818B9FDF7E8F9FFF7FEFB10BD00006D
:108930000822002010B50248008800F087F810BD1A
:108940000C22002010B500F0C1F810BD10B504468F
:10895000002004490870044804602A210348FBF7FA
:1089600021FB10BD18220020142200203C280020EA
:108970002DE9F047044600BF14B90E20BDE8F0878A
:1089800000BF0025207C20B1207A002801DD0120D5
:1089900000E000208146A07808B90720EEE7A17822
:1089A00020884A4601F0A8FF06464FF0000A37E04B
:1089B000606810F80A70B9F1000F02D0607CB8420C
:1089C0002CD0606900EB850888F80170002088F8D9
:1089D0000000A8F80260681CC5B2B9F1000F1CD0F5
:1089E000227A3846E16802F0FAF9B0B1616901EB28
:1089F00085004FF49671A8F80210477001210170AC
:108A0000B6F5967F03DDA6F59671418002E04FF43E
:108A1000FA714180691CCDB200BF00BF0AF1010AA2
:108A2000A0785045C4D8606980F82850606990F8F3
:108A30002800002807DD0021626992F82800401E06
:108A400002EB80004180002098E700002DE9F0470C
:108A5000054600F0E7FF074601201649087097F821
:108A60004001002824DD1448058000884FF40041AF
:108A7000A0FB01204FF4FA7312EB030840F1000150
:108A80005A0000234046FBF743FA064600223146CF
:108A90000A480068FDF71EFC044600BF264626B1C2
:108AA00000BF3046FDF7ECFA00BF00BFFDF788F9C4
:108AB000BDE8F087182200201022002020F10200DB
:108AC00000200149087070471822002070B50F4A35
:108AD00000210F48FDF7B2FB044600BF254625B133
