:020000040002F8
:10300000187B0020153202001D320200B94B02006D
:1030100021320200233202002532020000000000AB
:103020000000000000000000000000002732020045
:1030300029320200000000002B3202002D32020073
:10304000859A02002D9B020079CA020011A9020094
:1030500029A902002F320200D945020025A402004E
:103060002F3202002F3202002F3202002F320200D4
:103070002F3202002F3202002F3202002F320200C4
:103080002F320200859B02002F3202002F320200F5
:103090003DA902002F32020045A902002F32020092
:1030A0002F3202002F3202002F3202002F32020094
:1030B0002F3202002F32020000000000000000004A
:1030C0002F3202002F3202002F3202002F32020074
:1030D0002F3202002F3202002F32020000000000C7
:1030E00000000000000000000000000000000000E0
:1030F00000000000000000000000000000000000D0
:1031000000000000000000000000000000000000BF
:1031100000000000000000000000000000000000AF
:10312000000000000000000000000000000000009F
:10313000000000000000000000000000000000008F
:10314000000000000000000000000000000000007F
:10315000000000000000000000000000000000006F
:10316000000000000000000000000000000000005F
:10317000000000000000000000000000000000004F
:10318000000000000000000000000000000000003F
:10319000000000000000000000000000000000002F
:1031A000000000000000000000000000000000001F
:1031B000000000000000000000000000000000000F
:1031C00000000000000000000000000000000000FF
:1031D00000000000000000000000000000000000EF
:1031E00000000000000000000000000000000000DF
:1031F00000000000000000000000000000000000CF
:10320000DFF80CD000F0D6F8004800473D4303003B
:10321000187B00200648804706480047FEE7FEE787
:10322000FEE7FEE7FEE7FEE7FEE7FEE7FEE7FEE776
:10323000F1B80200013202000649074A086850430B
:1032400043F23902104408604008704701490860A1
:1032500070470000A82400206D4EC64140EA0103DB
:103260009B0703D009E008C9121F08C0042AFAD23C
:1032700003E011F8013B00F8013B521EF9D2704700
:10328000D2B201E000F8012B491EFBD270470022A8
:10329000F6E710B513460A4604461946FFF7F0FF55
:1032A000204610BD421C10F8011B0029FBD1801ADA
:1032B000704730B504460020034600E05B1C934293
:1032C00003D2E05CCD5C401BF8D030BD034611F862
:1032D000012B00F8012B002AF9D1184670470EB5D2
:1032E000C10F80EAE0700844CA07002140F233436E
:1032F0008DE80E000A460B4600F093F803B000BDBF
:10330000C1F30A5210B5C1F3130140F2FF3341F487
:1033100080119A4201DA002010BD40F233439A42F4
:10332000A2F2334203DC524200F034F810BD904068
:1033300010BD2DE9F05F0546002092469B46884669
:103340000646814640241BE0284641464746224621
:1033500000F020F853465A46C01A914110D3114646
:103360001846224600F038F82D1A67EB01084F4640
:1033700022460120002100F02FF817EB00094E41F2
:10338000201EA4F10104DFDC484631462A464346AC
:10339000BDE8F09F202A04DB203A21FA02F0002148
:1033A000704721FA02F3D040C2F120029140084355
:1033B00019467047064C074D06E0E06840F00103EF
:1033C00094E8070098471034AC42F6D3FFF71CFF8F
:1033D00080080400A0080400202A04DB203A00FA38
:1033E00002F1002070479140C2F1200320FA03F35C
:1033F000194390407047014608687047704770470E
:103400000201004348E4010010B5002B08DA401C1B
:1034100041F1000192185B411A4301D120F00100F3
:1034200010BD2DE9F04D92469B4611B1B1FA81F2E3
:1034300002E0B0FA80F220329046FFF7CDFF04465A
:103440000F4640EA0A0041EA0B0153465A46084338
:1034500003D120463946BDE8F08D114653EA0100FC
:1034600015D0C8F140025046FFF794FF05460E46BE
:10347000504659464246FFF7AFFF084301D00120AE
:1034800000E00020054346EAE0762C4337430A98E3
:103490004FEA4453A0EB08004FEAD4240A304FF01F
:1034A000000244EA47544FEAD72502D500200146DE
:1034B000D1E7010510196941DDE9084500196941A5
:1034C000BDE8F04DA0E72DE9F04D00231A461B1A88
:1034D0008A4103DB00200146BDE8F08DC1F30A52AA
:1034E000C1F3130141F480154FF0000BD10702D155
:1034F00000186D41521E0027044640F2FF11384665
:1035000001EB620A3E468046024600204FF48011DD
:10351000FFF740FFC2197141BB1846EB0100B4EB45
:10352000030C75EB000C04D3E41A65EB0005174699
:103530000E46241908F101006D4180463428E3DD70
:10354000F91946EB0600091BA84103D24FF0FF32E0
:10355000134601E0002213461BEB070046EB0A511D
:10356000BDE8F04DFFF750BF70B501EB020410F855
:10357000015B15F0070301D110F8013B2A1106D1B8
:1035800010F8012B03E010F8016B01F8016B5B1ED2
:10359000F9D12B0705D40023521E0FD401F8013BAB
:1035A000FAE710F8013B02F10202A1EB030303E08A
:1035B00013F8015B01F8015B521EF9D5A142D6D385
:1035C000002070BD2DE9F04104460F46154698468F
:1035D0002C480088632804DA2A480088401C2949BE
:1035E000088029480078062848D2DFE800F0030464
:1035F000052D2E2F00BF00BF201E01DB014600E07D
:1036000041428EB240F25230864202DC17F5617FB1
:1036100016DA1D480078401C1B49087040F25230F1
:10362000864205DD0020174908800A2007F05EFA6F
:1036300015480078032806D100201249088002E0CE
:1036400000201149087019E000BF00BF684205B2B0
:10365000B5F5487F11DD0C480078401C0A49087018
:1036600008460078052808DD002006490880092062
:1036700007F03CFA00200449087000BF00BFBDE815
:10368000F0810000F2210020F02100202DE9FC470C
:103690001B201D231F2203210090012000F05EFD4E
:1036A000132001210A4600273B46BC4600BF4FF0CD
:1036B000A049C84641EA420949EA870949EA03297B
:1036C00049EA0C4908F5E06A4AF8209000BF00BFBB
:1036D00011F06DFF002500204149087000BF01A8CE
:1036E00004F038FBC8200CF081FE681CC5B2032D25
:1036F0000DDD00203B4908701B201D231F220321E4
:103700000090002000F02AFD0020BDE8FC879DF815
:103710000400332803D09DF804001528DFD19DF85C
:103720000400152812D101202D4908700FF034FB38
:1037300004461B201D231F2203210090002000F0BF
:103740000DFD0CB90020E0E70120DEE7002537E0A1
:10375000002004F0A1FB044600260BE0C8200CF07A
:1037600045FE022004F098FB0440012C00D103E048
:10377000701CC6B2032EF1DB00BF072004F013FB60
:103780000440032004F0F2FB0440002004F065FB39
:103790000440002004F043FB0440002004F021FB1F
:1037A0000440022004F08EF904401F2004F0FCFBCA
:1037B000044004B106E0C8200CF018FE681CC5B235
:1037C000052DC5DB00BF1B201D231F2203210090F8
:1037D000002000F0C3FC0CB9002096E7012094E71C
:1037E000C1230020C021002010B5044600200B4951
:1037F000087014B941200A498871200A0849C87123
:103800000C720921064800F019FA05494872200C8B
:1038100088721421024806F0C7FC10BD68230020FE
:10382000283E002038B51A480088A0F57F41FF39AE
:103830002CD069461648008814F060F9044600BF91
:1038400025463DB100BF13A24FF49E7128460AF0F1
:1038500033FA00BF00BF9DF80000C0F34000A8B9D4
:103860000CF0E2FD01210A48008814F085F90446B5
:10387000082C0BD000BF25463DB100BF05A240F289
:10388000471128460AF018FA00BF00BF38BD0000F3
:103890002C2300202E2E5C6D6F75646C655C73317B
:1038A00031305F7372635C73313332636F6E66699C
:1038B000672E630010B586B00446A6208DF804007C
:1038C00020128DF80500E0B28DF80600032101A852
:1038D00000F0A6F806B010BD70B504460E461546B9
:1038E00005480088A04206D1044805700278314698
:1038F0000348FFF7B3FC70BD6C2300206F2300204A
:10390000743E002070B505460C4613490978C1EB9A
:10391000C10101EB4101114A1144481C22462946CC
:10392000FFF79CFC0C480078C0EBC00000EB4000A7
:103930000A490C5408480078401C0749087008469A
:1039400000780A2190FBF1F201FB12000249087095
:1039500001200349087070BD952300209A3E002085
:103960009423002070B505460C461A4800780128BB
:1039700001D0002070BD18480078C0EBC00000EBFB
:1039800040001649085C2070227813480078C0EB8C
:10399000C00000EB40000B461844411C2846FFF7CE
:1039A0005DFC0D480078401C0B4908700846007803
:1039B0000A2190FBF1F201FB12000749087008464A
:1039C000007807490978884202D10020014908702F
:1039D0000120CFE794230020962300209A3E002068
:1039E0009523002010B586B00446A7208DF804006A
:1039F0008DF80540022101A800F012F800200649C8
:103A0000086006F0BBFF0D2007F070F800200349A6
:103A1000087006B010BD0000702300206E23002047
:103A20002DE9F04105460E46002714E00C48807D44
:103A3000012801D0BDE8F0813246294608480BF044
:103A4000FEFA04461CB914200CF0D0FCF2E7C820A2
:103A50000CF0CCFC7F1C042FE8D300BFEAE7000089
:103A6000AC3D002070B50B461446002111E05A5CB5
:103A7000504000250AE010F0010F04D040104AF237
:103A80000106704000E040106E1CF5B2082DF2DB1C
:103A9000491CA142EBD3061206EB0026B0B270BD62
:103AA00002460021142092FBF0F0C1B2052901DB8F
:103AB000042070470846FCE770B503460C461E49D3
:103AC000B1F90010C81A15F011FA06461B49B1F9F0
:103AD0000010081B15F00AFA06441949B1F9001044
:103AE000881A15F003FA3518642D1DD91548008879
:103AF0004FF6FD71884204DA12480088401C1149D3
:103B00000880114800884FF6FE71884204DA0E489A
:103B10000088401C0C4908800A480088042803DDFE
:103B200000200A490968087003480380034804809C
:103B30000348028070BD0000A6230020A8230020B7
:103B4000AA230020BC230020A42300209C230020C3
:103B500010B5044620460DF035FD0CF03BFA0CF094
:103B600077FA10BD70B504460D46012C13D11548E7
:103B70000078022825D0022012490870002012493E
:103B80000968884705F052FF2B4601220A212820A8
:103B900005F0F0FE15E00B480078032811D0032053
:103BA00008490870012001218140084A430942F870
:103BB000231000BF002006F053FA012002490968D3
:103BC000884770BD552300205823002080E100E085
:103BD0000146B1F58C2F02D3B1F5FE2F06D9054869
:103BE000814205D303481030814201D8012070473B
:103BF0000020FCE71410001030B587B00546002403
:103C000009E005EB84000B490968884701A941F8E0
:103C10002400601CC4B2062CF3DB0698401C02D1C1
:103C20000598401C03D0A80A03490968884707B0D3
:103C300030BD0000B4230020B023002010B503469F
:103C40000C460022002102E0585C0244491CA142BB
:103C5000FAD3D043421CD0B210BD00002DE9F04190
:103C600004460F465B49B7FBF1F201FB12703C21A1
:103C7000B0FBF1F201FB1201A1714FF46161B0FBE5
:103C8000F1F201FB12013C22B1FBF2F161714FF440
:103C90006161B0FBF1F121714E48B7FBF0F085B2E4
:103CA0004FF4FA60208021E021884FF4C87291FB24
:103CB000F2F302FB131171B12188642291FBF2F33C
:103CC00002FB131151B12088C11700EB91718910CB
:103CD000B0EB810102D14FF4B77101E040F26D11F8
:103CE000691A8DB22088401C80B2208021884FF450
:103CF000C87291FBF2F302FB131171B121886422A7
:103D000091FBF2F302FB131151B12088C11700EBB4
:103D100091718910B0EB810102D14FF4B77101E0CC
:103D200040F26D11A942BFDD0020A07022E0208882
:103D30004FF4C87190FBF1F201FB120070B12088C2
:103D4000642190FBF1F201FB120048B12688F017C4
:103D500006EB90708010B6EB800001D1012000E0EE
:103D600000208046A17810F032FB281A85B2A07896
:103D7000401CA07020884FF4C87190FBF1F201FB49
:103D8000120070B12088642190FBF1F201FB120057
:103D900048B12688F01706EB90708010B6EB8000D3
:103DA00001D1012000E000208046A17810F00FFB37
:103DB000A842BCDDE570E078401CE070A078401CB3
:103DC000A070E278A178208800F06CFEE071BDE878
:103DD000F08100008051010010B5702000F046FB1A
:103DE00028200CF003FB00200249C880088088804E
:103DF000488010BD98210020F8B505460E460520E4
:103E000095FBF0F0A6EB8007002412E007EB84009E
:103E100006F0C6F800909DF8020020F001008DF831
:103E2000020007EB840001226946054B1B68984796
:103E3000641C052095FBF0F0A042E7D8F8BD000017
:103E4000AC230020F8B505460E460827002412E0F2
:103E500005EB44210422684603F080FA9DF8010036
:103E6000552806D19DF80000AA2802D134800120EF
:103E7000F8BD601C84B2BC42EADB0020F8E7000019
:103E80007CB5754D002403E000202855601C84B2E9
:103E9000B4F5007FF8D3AA2028705520687040F24E
:103EA000E1706E49088001208870C8700C2008718C
:103EB00000204871887108460168009140680146F9
:103EC000019000980CF032F96349C1F802003C21DE
:103ED000614880F82510AA2180F82610192180F861
:103EE0002710012180F828104B2180F8291090F824
:103EF000200020F01001584880F82010B0F8AA00E7
:103F00006FF30B0000F2EC405349A1F8AA004FF404
:103F1000D2715148B0F8AB0061F30F104E49A1F8CF
:103F2000AB00084690F8200020F02000203081F8F7
:103F300020004FF0FF314848C0F8B3102D2180F821
:103F4000CF10FA21A0F8D11090F8BA0020F020018B
:103F5000414880F8BA10B0F8B90020F4FE5101F5DC
:103F6000FE513D48A0F8B91090F8B70020F01F00AE
:103F70000830394981F8B7000846B0F8B70020F496
:103F8000FC613548A0F8B71090F8B80020F0F801AF
:103F90006031314880F8B81090F8B90020F03F0146
:103FA0002D4880F8B91090F8BE0020F020012A4872
:103FB00080F8BE10B0F8BD0020F4FE5101F5FE51AE
:103FC0002548A0F8BD1090F8BB0020F01F010E316D
:103FD000214880F8BB10B0F8BB0020F4FC611E48FB
:103FE000A0F8BB1090F8BC0020F0F80190311A48FE
:103FF00080F8BC1090F8BD0020F03F01164880F812
:10400000BD101749C0F8D7104FF4FA61A0F8D510C9
:10401000FF2180F82210002180F821100A2180F869
:10402000D0101E2180F8241042F21071A0F8D31095
:10403000052180F8AD1080F8AE10002407E0084993
:104040000548DB3000EB84000160601C84B2072C63
:10405000F5DB00F049F87CBD007E0020A0210020A7
:104060000003FB1F2DE9F84380461C4D1C4C4FF408
:10407000EA27B8F1010F02D14FF4EC27194C208840
:10408000072805D3380B00F0F1F9002020800BE061
:1040900000200090218807EB41200122694600F0B2
:1040A00029FA2088401C2080002085F8FF01002686
:1040B00007E095F8FF01A95D484085F8FF01701CF5
:1040C00086B2B6F5FF7FF4D9218807EB4120802224
:1040D000294600F00FFABDE8F8830000007E0020BA
:1040E000842100208621002010B50020FFF7BAFFB0
:1040F0000120FFF7B7FF10BD70B50546012D03D1B4
:10410000062014F0D7FF23E00624204608F06AFFBB
:1041100000B91CE00F48806868B160090D4951F88A
:10412000200004F01F020121914088436109094ADF
:1041300042F821000AE000BF04F01F01012088407E
:104140000549620941F8220000BF00BF00BF00BF5F
:1041500070BD0000AC31002080E100E02DE9FF4798
:1041600006460C4617469846DDF830A0154B0FCB97
:104170008DE80F000A2C02D10024134D00E0134DEE
:10418000012E1AD18DF80C408DF802708DF8018047
:104190008DF800A000BF00230D4A6946284610F0A4
:1041A0008DFF8146B9F1000F06D000BF09A22B2177
:1041B000484609F081FD00BF02E0284611F04CF8A6
:1041C000BDE8FF8750D9030048D9030040D9030058
:1041D00009A703002E2E5C6D6F75646C655C7370AF
:1041E0006F72745C73706935322E6300012001496F
:1041F000087070472F23002002200C49086000BF80
:104200000B4800680028FBD00120084910310860E5
:1042100000BF074800680028FBD000200349086061
:1042200000BF034800680028FBD0704704E5014048
:1042300000E401402DE9F0410446002614F4000F8B
:1042400010D1B4F50C3F0DD8260B2005000D00D081
:10425000761C4627002503E0781900F007F96D1C4D
:10426000B542F9D30120BDE8F08130B50346002402
:104270004D1EE8B200BF33F810502C4428B1451E43
:1042800033F8155023F8105000E002E0451EE8B264
:10429000F1E700BFB4FBF1F5158030BD2DE9F04129
:1042A00005460C46002600276088070AA5F5E2208F
:1042B000C0F30F362805000D1AD1BE4212D1608816
:1042C000A188884201D1208860B1A08800F5807063
:1042D00060804FF4407020806088B0F5806F01D31B
:1042E00000206080280B00F0C1F832200CF07EF82E
:1042F000BDE8F0812DE9F04104460D460026002777
:10430000A0884FF4E22101EB001621463046FFF76A
:10431000C5FF2F4604223946304600F0EBF8A0884E
:10432000401CA080A088B0F5806F01D30020A08041
:104330002088401C2080204600F060F80020BDE866
:10434000F08170B5044600F0B9F80546A5F57F4048
:10435000FF3804D01DB12088B0F5806F0CD97020D3
:1043600000F084F828200CF041F80020E080208044
:10437000A0806080012070BDE580681E4FF4E021C0
:1043800001EBC0063088208070886080B088A080F3
:10439000608821880844C0F30900A188884201D1BF
:1043A0000020E8E7702000F061F828200CF01EF8EB
:1043B0000020E0802080A08060800120DBE730B515
:1043C00003460C46184600F012F808B1012030BD33
:1043D00058884FF4E22101EB0015002203E0A85CAD
:1043E000A054501CC2B2102AF9DB0020EFE70146AE
:1043F000088808B9012070470020FCE770B5044622
:10440000E088B0F5007F07D3702000F02FF8282057
:104410000BF0ECFF0020E080E0884FF4E02101EB9E
:10442000C00520780F490870208800124870A078D5
:10443000887060880012C87020790871A088001206
:104440004871AA2088715520C87107480A4606CAD3
:1044500006C002220449284600F04CF8E088401CBF
:10446000E08070BD88210020902100202DE9F041DE
:1044700004460025FF2627033846FFF7A9FBD8B1DD
:104480000020FFF739FE00BF204628DFC6B2681CB7
:10449000C5B24EB964250120FFF72EFE02200BF0B5
:1044A000A5FF0120BDE8F08102200BF09FFF642DE5
:1044B000EADB0120FFF720FE0020F3E7002014E0F4
:1044C0004FF4E02202EBC002911D0A88A2F57F435F
:1044D000FF3B00D10CE00A88A2F5AA43AA3B02D018
:1044E0004FF6FF7004E0421C90B2B0F5007FE7D3B6
:1044F00000BF70472DE9F84307468846144600265A
:10450000012000EB1419002000903846FFF760FBF3
:1045100028B30020FFF7F0FD00BF22464146384691
:1045200029DFC5B2701CC6B222464146384618F093
:1045300042F948B145B90120FFF7DEFD02200BF03A
:1045400055FF0120BDE8F88348460BF04FFF642E6D
:10455000E3DB0120FFF7D0FD02200BF047FF002036
:10456000F0E7F0B503460C460020002130E05D5C2A
:10457000802D0BDA5D5C7B2D25DA5D5C2F2D22DD35
:104580005F5C0546461CF0B257551CE05D5CE22DB1
:104590000AD14D1C5D5D802D06D18D1C5D5DAD2D5C
:1045A00002D18D1CE9B20EE05D5CE22D0AD14D1CFA
:1045B0005D5D802D06D18D1C5D5D8E2D02D18D1C23
:1045C000E9B200E006E0102800DB03E04D1CE9B290
:1045D000A142CCDB00BFF0BD2DE9F04F89B04FF018
:1045E0000008002008904FF48070079001260024F6
:1045F00014E0079811F026F850B100BF8048006819
:1046000000EA060020B1079811F00EF848EA060803
:1046100076000798001D80B20790641C082CE8D330
:104620004FF4BE7011F00EF850B14FF4BE7010F0A0
:10463000FBFF48F0004808AA0121002010F0D8FF35
:1046400018F0FF0F20D0012600241BE016EA080F07
:1046500016D000BF6B4850F82400C0F30420074672
:1046600000BF684850F82400C0F30140814620464E
:104670000BF0A2F9054615B149463846A84700BFD8
:104680007600641C082CE1D318F0004F7ED0002087
:1046900006900590002505E04FF0FF3004A941F891
:1046A00025006D1C002DF7D000BF002006900024CF
:1046B0006EE05548005D0390039820F0C007524813
:1046C0000057401C61D004A9384610F04FF900286B
:1046D0005BD003984FEA901A38460BF0B5F9814643
:1046E0000BF06AF90290029810B9BAF1030F4BD19E
:1046F000BAF1030F11D1394605A80246CB0801F0E3
:10470000070112F803C04FF0010E0EFA01FE4CEA49
:104710000E0C02F803C000BF00BF00BF00BF4FF087
:10472000A041084600F5E06151F82710C1F30149A6
:1047300000BF08A9384610F019F98346BBF1000FF5
:1047400002D0B9F1020F05D0BBF1000F1BD1B9F1B6
:10475000030F18D1BAF1030F0FD1B9F1020F01D134
:10476000032000E0022001903846019910F063FE1A
:104770000698401CC0B2069000BF029818B151467E
:104780003846029A904700BF00BF00E035E0641C45
:10479000042C8ED3069858B3012703AA01210020C8
:1047A00010F026FF00250AE003A850F8250008A90C
:1047B00051F82510884201D0002702E06D1C002D21
:1047C000F2D000BF17B10020069010E000250CE0E9
:1047D00003A850F8250008A941F8250005A850F8BD
:1047E000250004A941F825006D1C002DF0D000BF64
:1047F000069800287FF459AF00BF09B0BDE8F08FDC
:104800000463004010650040583000202DE9FC4151
:1048100005461B201D231F22032100900120FFF7C6
:104820009DFC2348007801281ED101A93C2003F0FB
:104830009CFA2E4600240BE0C02094FBF0F100FB14
:104840001140871939463F2003F08FFA601CC4B22B
:104850009DF804008442EFDB9DF80400062190FBE4
:10486000F1F0C0B2019016E001A92F2003F07DFA0B
:104870009DF8040000F01F000190002407E004EB05
:10488000440105EB410003F022FA601CC4B29DF81C
:1048900004008442F3DB1B201D231F220321009010
:1048A0000020FFF75BFC9DF80400BDE8FC810000E0
:1048B000C12300202DE9F04105460C4617469846D5
:1048C0004FF6FF760A48007878B90A484FF48C21F1
:1048D00002683046FFF7C6F820802088A84202D13F
:1048E0000120BDE8F0810020FBE70020F9E700008F
:1048F0006A230020742300200146E9B11048008893
:1049000008800F48408848800D48007908710C489D
:10491000407948710A48807988710948C079C8711E
:104920000748007A08720648407A48720448807A3C
:1049300088720348C07AC8720148C0797047000085
:10494000D04100200D4800780D4A1278904212D0D4
:104950000A4802780078401C084B18700948815CAE
:1049600018460078142290FBF2F302FB1300034A6E
:104970001070084670470020FCE70000BD210020B1
:10498000BC210020A82100202DE9F04F93B006465D
:1049900089463048C47914B1601EC4B200E00624D0
:1049A0000025601C072190FBF1F201FB1200C4B24C
:1049B00000274FF0000844E02748D0F802002749BC
:1049C000B0FBF1F0C5F10601401A244900FB01FAE1
:1049D000CA452DD901A9204605F0F6F840B39DF847
:1049E0000E10CA1701EB927290109DF80E10CA17A4
:1049F00001EB92729210B1EB820201D0411CC8B25D
:104A00000146C21700EB1272C2F3071BC21700EB7C
:104A100012721211B0EB021203D00BF1010101F07E
:104A2000FF0B08EB0B011FFA81F8791C8FB200BF56
:104A3000601CC4B2072094FBF0F100FB1140C4B22B
:104A40006D1C072DB8D3377086F8018013B0BDE810
:104A5000F08F0000A0210020007E00208051010086
:104A600070B504460648057805EBD570054AD2F8BE
:104A7000022002EB60012046FFF7F0F870BD000055
:104A800004220020007E002010B50521032006F03E
:104A900065FE41F25E01484340F23E21B0FBF1F079
:104AA00080B210BD2DE9FE4104460B4616460FF2BA
:104AB000A808D8E9005CD8F80880CDE901C80095BD
:104AC000642594FBF5F5EFB2642594FBF5FC05FB3A
:104AD0001C45E9B20D2593FBF5FC05FB1C35EBB23B
:104AE000132F02DD01F16405E9B20D464FEAE17CC6
:104AF00001EB9C7C01EBAC0C1FFA8CF2072592FBBE
:104B0000F5FC05FB1C25AAB202EB060C5D1E1DF888
:104B100005506544AAB24FEAE17C01EB9C7C4FEA68
:104B2000AC0CB1EB8C0C03D1032B01DA551EAAB2ED
:104B3000072592FBF5FC05FB1C2515B9072210463D
:104B400005E0072592FBF5FC05FB1C25E8B2451E98
:104B5000E8B2BDE8FE81000000030306010406027E
:104B60000500030570B503460C46C3EB031504EBC3
:104B70008501104D2D88A9420CDB0E4D2D884D1B53
:104B8000052695FBF6F54FF4D22606EB822606EBBA
:104B900085000DE0074D2D88C5F5B4650D4405264B
:104BA00095FBF6F54FF4D22606EB822606EB850040
:104BB00070BD0000B823002004A1002005F090FD86
:104BC00000221146104609F077F80000686172640F
:104BD0006661756C740D0A0010B50446072010F06C
:104BE000BDFC20B90D4890F823003C2809DD0020C9
:104BF0000B4988710846807908B1012010BD00205A
:104C0000FCE7204604F066FF054988710846807974
:104C100008B10120F2E70020F0E70000007E00204C
:104C2000D04100202DE9F05F654C8E460326636875
:104C3000627803F58059217899F8B05343F69823A8
:104C4000042792464FF0060B4FF0020C4FF0050878
:104C500098420BD9022909D0072A1BD0062A1CD05A
:104C6000052A1DD0042A1DD084F801C040F6B832B0
:104C700090420A4625D2022A34D06278A2B1022A92
:104C800015D0032A15D0042A15D0052A16D00722DC
:104C9000627018E084F801B0E8E784F80180E5E785
:104CA0006770E3E76670E1E784F801C00BE06670C7
:104CB00009E0677007E084F8018004E084F801B03F
:104CC00001E0022A0ED006290CD04FF47A7205B109
:104CD0005208904209D26078072805D020B10128F7
:104CE00002D002E04622F2E70DB126700AE0072862
:104CF00003D1B9F8D223724502DB84F800C004E086
:104D0000022902D0022906D017E002292CD00DBBBF
:104D10000020607028E085B902F0FEF802F03EF94C
:104D200000F08AF8616841F65830A1F86200A1F8F5
:104D30006000A1F85E00A1F85C002278022A13D07E
:104D4000606840F22C63C168994204D9042A02D0F9
:104D500084F8008008E0B1F5897F04D900F580501F
:104D6000D0F89803D8B1267061788A4506D160687A
:104D700000F5805090F8B003A8421ED0606800F59E
:104D8000805090F8B013A94200D06770607808286E
:104D900013D2DFE800F0060A0E0E0E0E0E0E27707C
:104DA000E2E7BDE8F05F02F05BB9BDE8F05F02F05A
:104DB0003FB9BDE8F05F02F095B9BDE8F09F000093
:104DC0008C2400200C4A0D4913780B70526892F81D
:104DD00056304B7092F857308B7013780B725368C3
:104DE0004B6092F8F1244A72A1F14C02D16C526DE1
:104DF0008260C0E900137047982400200C5B0020FB
:104E00000B4A10B50B4913780B705268D3684B608E
:104E100014780C7294794C7292F867208A72A1F11E
:104E20005802916D126E8260C0E9001310BD00003F
:104E30008C240020B45500202DE9F041764C7548B3
:104E400006216060754B2170754D1F7870212E789A
:104E500001EA071141EA161C72494FF03C0E0EEAB6
:104E6000860E0A7802F03F014EEA9212891A00F586
:104E70008052052905DD41F27071A2F8D213891024
:104E800004E042F6E061A2F8D2138910A2F8D4132C
:104E90000021A2F8D613BCF1000F07D106F00F06CF
:104EA0002E7007F0F80545F004051D700170417083
:104EB0000181A2F8B813C1600161A0F86210A0F8E6
:104EC0006010A0F85E10A0F85C1080F865104162D8
:104ED00081628161C1610162C1620163416380F8E5
:104EE0006410002300EB4305A5F8CA10A5F80A12C8
:104EF00000EBC3055B1CC5F84C139BB2C5F85013FF
:104F0000A02BEFD35FF0000300EBC3055B1CC5F8DB
:104F10004C189BB2C5F85018A02BF5D35FF00003D6
:104F200000EB83055B1CC5F84C1D05F580559BB255
:104F3000E966C82BF4D3C72382F88C3382F88D132B
:104F400082F88E1382F88F1382F8901382F89113EF
:104F5000012382F8923382F89313A2F89413A2F8F3
:104F60009613C2F8983348238370C370037143715A
:104F7000C37182F89C33A2F89E13A2F8A013C2F862
:104F8000A41382F8A813C2F8AC1382F8B01382F805
:104F9000B213502382F8B1331223C2F8B43382F82B
:104FA000BA1382F8BB1382F8BC1382F8BD13002336
:104FB000C2F8C413C51805F580555B1C9BB285F873
:104FC000C813042BF6D380F8671080F8681000230C
:104FD00000EB43055B1C9BB2A5F86A10282BF7D3A6
:104FE000C0F8C010A0F8BE10A0F8BC1020F8BA1F7E
:104FF000152343730373C372837281730A48017864
:10500000617092F8B013007802F06CF80120BDE8EE
:10501000F0810000DC4100208C2400208624002048
:105020008524002084240020FD0604002DE9FF4F84
:10503000ADB0002700253A990E971F97209721972A
:105040001D971B971C9710972297119712970697F9
:105050001E9713970B9516950895CDE923570420B5
:1050600002902C46AB46A846AA461595901110FB17
:1050700000F2981110FB0022881100FB0020FEF7BF
:105080002EF941EC100B07F061FF51EC100BFEF70D
:1050900037F9FF4E1FFA80F97068B0F860C0A0F8C9
:1050A00062C0B0F85E30A0F86030B0F85C20A0F8C4
:1050B0005E202D99634489B20A441A44A0F85C101A
:1050C0009208026100EB47027F1CB2F86C30FFB21D
:1050D000A2F86A30272FF5D3A0F8B8105FF00001CE
:1050E00000EB4102491CB2F86A30C9B29844282941
:1050F000F6D32822B8FBF2F18BB2002100EB41027B
:10510000B2F86A20D21A00D55242491C5A44C9B298
:105110001FFA82FB2829F1D3C168B1F5967F01D926
:1051200019220292122909D9029AB1FBF2F302FB69
:10513000131141B900692E99FFF774FD7068C168B9
:10514000122939D043D97068A9F5E171024600F5FA
:105150008050D0F8C4335918C0F8C41302D50021C8
:10516000C0F8C413D1681922B1FBF2F303EBC302F8
:1051700002EB03128A422AD190F8BF1380F8C013C1
:1051800090F8BE1380F8BF1390F8BD1380F8BE13DB
:1051900090F8BC1380F8BD1390F8BB1380F8BC13D3
:1051A00090F8BA1380F8BB13D0F8C41341F29412EC
:1051B000914209DD012108E0018A8182C182A0F8C3
:1051C0003890A0F83A9002E0002180F8BA13706895
:1051D000B0F85E10B0F86030CA1A642A03DD2D9F63
:1051E000CF1B642F07DC6FF06307BA4206DA2D9AF3
:1051F000891AB94202DAB0F9601001E0B0F95E1024
:10520000B646C668122E70D9CA1A02F5FA62B2F50D
:105210007A6F08D900F58052D2F8ACC38C44ACEB5D
:105220000303C2F8AC3341F2AC32125A891AC28A73
:105230008A1A13B2828AC2828182D0F81CC0826923
:105240006FF070010CEB8C08514308EBCC0C01EBB8
:105250008C01A3EBA111C0E907218161028D8A1A9B
:1052600013B2426AC0E90912C26AD0F830C06FF0C6
:105270004D0151430CEBCC0C01EB8C01A3EBA111C4
:10528000C0E90C21C162CEF80810816D0B91428FEC
:10529000A9EB02010BB2018F4187A0F83890C26BD5
:1052A0006FF0700102FB01F7016C01EB810C0CEB5C
:1052B000C10107EB8101A3EBA111C0E91021C1637A
:1052C000B0F84C208A1A13B2826CC0E91212026D37
:1052D000476D6FF04D01514307EBC70701EB8701A5
:1052E000A3EBA111C0E915210165DFF8A8E140F2A7
:1052F000DC594FF4BB78962E6ED9002300EB4302A5
:1053000003F12D01B2F8CA60314489B2A2F8CA1083
:10531000494503D3A1F2DC51A2F8CA108AB240F287
:10532000654C624502D3A2F265410CE040F2EE21E9
:105330008A4202D3A2F2EE2105E0424502D9A2F24E
:10534000771100E01146C1F5BB771EF801101EF879
:10535000076042450FD940F2EE27BA4203D20A460F
:105360003146564207E0624502D24942764202E0A7
:105370000A467142164600EBC302476BD2F84CC393
:105380005B1C06FB07C7C2F84C73D2F850C3476BCF
:10539000DBB201FB07C7C2F85073D2F84CC8876D67
:1053A000A02B06FB07C6C2F84C68D2F85078866D71
:1053B00001FB0671C2F85018A0D3C16800F58052F5
:1053C000972909D9836D0B99591AD2F8A43300D5BE
:1053D00049421944C2F8A413C168B1F5AF7F7DD921
:1053E000002140F2654E00F5805200BF00EB4106FF
:1053F00001F12D07B6F80A323B449BB240F2DC576C
:10540000A6F80A32BB4203D3A3F2DC53A6F80A3251
:105410009BB2734502D3A3F265460DE040F2EE263F
:10542000B34202D3A3F2EE2606E0B3F5BB7F02D966
:10543000A3F2771600E01E46164FC6F5BB7CB3F507
:10544000BB7F17F8069017F80C8013D940F2EE26B0
:10545000B34204D24B46C146C3F100080AE073458B
:1054600004D2C9F10009C8F1000803E04B46C8F1B5
:105470000009984692F88D7300EBC10300EB870793
:10548000D3F84C63D7F84C7D08FB176604E00000A6
:105490008C24002008070400C3F84C6392F88D6345
:1054A000D3F8507300EB8606D6F84CCD09FB1C767A
:1054B000C3F8506392F88D63D3F84C7800EB8606FE
:1054C00006F58056F66E08FB1676C3F84C6892F81F
:1054D0008DC300EB8C0606F5805600E024E0D3F87F
:1054E0005078D6F86CC0491C09FB1C76C9B2C3F8C9
:1054F0005068A029FFF47AAF92F88D13C7293CD0E9
:105500004B1CDBB200EB830300EB810103F58053FE
:1055100001F58051DB6EC96E591AD2F8A43300D55B
:105520004942591AC2F8A41300F5805141F252734E
:10553000D1F8A42387781A445B0092FBF3F20C970E
:1055400091F8B16353B2BA1B4FF00D081896F61BD1
:10555000D21C313692FBF8F296FBF8F6DFF8BCC5A8
:1055600052B276B2002B27DD06263746934216DB71
:105570009E1D0C2E03DA9B1D02E00023C2E70C23C4
:105580009B1D5BB2002A01DA002202E0961D0C2E60
:1055900001DA921D00E00C229A1A56B21AE0002A93
:1055A00001DA002202E0931D0C2B01DA921D00E0CB
:1055B0000C22921D57B20DE00833032B00DA0323AF
:1055C0005AB2002E00DA0026324456B2082E00DD10
:1055D0000826082791F8A8232692052A03D90A3617
:1055E00076B20A3703E01AB1761C76B27F1C7FB21E
:1055F0000A3606EBD67242F347031E010A230A3726
:1056000007EBD77242F34702120196FBF3F692FBC7
:10561000F3F276B252B20B960F92C368962B51D327
:10562000466B37B215976FF00907BE4200DD15973C
:10563000B0F9BA60B0F9BC70BE4278DA159FBE42CC
:1056400075DCB0F8BE60EEB3D0F8C0609E1BA6F16A
:1056500001085E1EC0F8C0609CF80020022A40D0FD
:105660005FF00102A8F10B06132E2ED2962B2CD937
:105670004AB390F86520042A02D2521C80F86520B3
:1056800090F8C66080F8C76090F8C57080F8C67062
:1056900090F8C4C080F8C5C008F0FF0280F8C420AC
:1056A00062443E44324497080022861896F8C4604B
:1056B000F61B00D57642521C5644D2B21FFA86FA27
:1056C000042A01E033E000E0EFD3BBF1960F02D3F0
:1056D000BAF10A0F07D990F868200A2A13D2521C8F
:1056E0000FE00022BEE790F867602EB190F86820C6
:1056F00062B1012E04D006E0002280F8682016E096
:10570000521E80F86820D2B2022A06D290F8672092
:10571000012A02D1002280F8672090F86820062A2A
:1057200005D390F8672012B9012280F8672019226A
:10573000B3FBF2F602FB16320492002A7AD1FA2B5E
:1057400078D3F74AF74E4FF0000A57460DF1740B25
:1057500000EBC709D9F84CC84FEA6C38D9F850C8E3
:1057600008FB08F84FEA6C3C0CFB0C89D14500D9CA
:10577000CA46914524D2B24222D3A7F1010C0CF0C3
:10578000FF0C0026CDF868C05BF826E0964513D2E2
:1057900056B10DF1380C1CF80680B4440CF8018C9D
:1057A0000BEB860C4CF804EC0DF13808DDF868C002
:1057B00008F806C04BF82620761CF6B2042EE3D378
:1057C0007F1C1646FFB24A46A02FC1D300225F4677
:1057D000DDF880C057F82260B6EBDC0F06D20DF181
:1057E000380C00260CF8026047F82260521CD2B236
:1057F000042AEDD3C94A91F8926341F2512CE24553
:1058000001D2012700E0002781F89273BE46049F71
:10581000002F93D1FA2B93D35FEA0E0702D1B3F591
:10582000AF7F8DD30227289740F29447BA4502D222
:10583000012701E0F9E3002780F8C87091F8C073F0
:10584000279717B10C9F7F0101E0B1F8B873DDF81D
:1058500060C0B9460F9FBCF14D0FC7EB591701D976
:105860004FF04D0C674507DA189F4D2F00D94D2793
:10587000C7EB59177FB20F979446BEF1000F09D1BD
:1058800046B19CF80020042A04D10C9A3C2A01D28B
:105890004FF4F069A24EDFF88C82002700EBC702BC
:1058A000D2F84CC3D2F850234FEA6C3C0CFB0CFCF2
:1058B000521302FB02CAB2452AD2464528D3A7F1A9
:1058C000010C0CF0FF0C00220DF1400BCDF81CC0B8
:1058D0005BF822C0CDF810C0B44515D262B10DF10D
:1058E000880C1CF8028094440CF8018C0BEB820CA1
:1058F000DDF810804CF8048C0DF18808DDF81CC030
:1059000008F802C04BF82260521CD2B2042ADFD33E
:105910007F1CB046FFB25646A02FBFD3814A1992D2
:1059200029917F4F91F892B3002200BF00EBC2068D
:10593000D6F84CC3D6F850634FEA6C3C0CFB0CFC19
:10594000761306FB06CA560106F5B066A6EB090CEF
:105950000B9EBCEB461F0ADAC2F1000C09EB4C1699
:10596000DDF83CC0A6F5B066B6EB4C1F0ADB299EFD
:10597000D6F898631EB1562A01D2062A02D85FEAE9
:105980000B0600D001262C96BBF1000F01D10F2A87
:1059900001D3012600E000262B964FF004080026D4
:1059A0000DF1380C1CF806C0BCF1000F08D0A2EBBA
:1059B0000C0C0CF1040CBCF1080F01D84FF02008BE
:1059C000761CF6B2042EEBD3299ED6F8B463B7EB5F
:1059D000960F03D906FB08F6BE4267D8BBF1000F4D
:1059E00064D1299E96F8C063EEBB299ED6F89863D1
:1059F000012E5BD00026BA453FD2DDF864C0674572
:105A00003BD3DDF8B0C0BCF1000F36D0DDF8ACC040
:105A1000BCF1000F31D03EB3A2F1010C0CF0FF0C31
:105A20000026CDF81CC000BF0DF16C0C5CF826C040
:105A3000CDF810C0BC451CD276B10DF1840C1CF819
:105A40000680B4440CF8018C0DF16C0C0CEB860C48
:105A5000DDF810804CF8048C0DF18408DDF81CC0D2
:105A600008F806C001E021E007E00DF16C0C4CF8ED
:105A70002670761CF6B2022ED6D3521C1997D2B2DB
:105A80005746A02AFFF452AF0C9AC2709146D0F844
:105A90004C235713D0F850237F43521302FB02725A
:105AA000139FB2EB570F03D9012202E00126A2E7B0
:105AB00000221A9291F88D730022521CD2B2C82A89
:105AC000FBD31A9A0AB1279A7AB100220292269A37
:105AD000052A01D90022029291F8C97391F8C823CE
:105AE000BA46BA4203D9174602E00122EEE757460A
:105AF00091F8CAC391F8CB63E346B44501D9DC46BB
:105B000000E0B446674505D9524501D917460CE077
:105B100057460AE0B34507D95F4606E08C240020CB
:105B200000A493D6008589DC3746524501D9D44676
:105B300000E09446B34501D9B04600E0D846C445DC
:105B400003D9B34506D85E4604E0524501D956460E
:105B500000E01646BE1B0936122E01D80126089613
:105B60000AB900220892D1F898239346012A1AD143
:105B7000BEF1000F17D09DF885201C9E2D32C1F874
:105B8000B4630126D2B2239638E000BFDDE91B766C
:105B900007EB4707B6EB470F7CD90226DFE001266B
:105BA000DDE00026DBE0029A12B15FEA0B0209D0C9
:105BB000BEF1000F26D09DF88B2062B12D32D2B2FB
:105BC000139E13E0269E4A46761CF6B281F8A8631F
:105BD000032EE6D9E3E7189A0C9E0A3296420CD8B7
:105BE0009DF885204AB12D321C9ED2B2C1F8B46313
:105BF0005FF0000681F8A86300E04A461B9E002E75
:105C0000CBD0C3E7089A02B10122239291F8B223C4
:105C10005AB9239A4AB1012281F8B2234A46B9F10E
:105C20004D0F00D24D2281F8B12300220592164675
:105C3000CDF8102021AA4FF0000A925D149242B3D1
:105C400000220EAF17F802C0BCF1000F16D0149F4F
:105C5000B7EB0C0700D57F42DDF8A080474509DD92
:105C6000149F0CF12D0CA7EB5C072D3700D57F425C
:105C7000474503DC4FF0010ACDF810A0521CD2B208
:105C8000042ADED3059F5AEA070204D0BAF1000FB6
:105C900005D02AE073E00122CDE9052625E0069A29
:105CA0001BAF57F8222057F8267002EB420C0CEB82
:105CB000C20C0A22BCFBF2F2BA4215D90F9F0B9A12
:105CC000BA4208DDDDF818C021AF149A17F80C703D
:105CD000BA4209D809E007DADDF818C021AA149FF2
:105CE00012F80C20974200D20696761CF6B2022ECD
:105CF000A0D3049A62B1069E1BAA52F82620FE4E3B
:105D0000B24205D21C9E02EB4202B6EB420F2BD8E8
:105D1000059A4AB3069E21AA069F925D1BAE2D32BC
:105D200056F82760C1F8B463002681F8A863129F73
:105D3000D2B2A7B1DDF84CC01C9F6745BFF42DAFB0
:105D4000DDF848C0674504D3DDF84CC0B7EB9C0FC5
:105D5000F4D2DDF840C0B7EB8C0F3FF63BAF867155
:105D600004264FF0000A30E0BBF1000F03D00C9A7C
:105D7000121DD2B215E7269E4A46761C3AE71B9FB3
:105D8000B6EB470FF6D90AE74FF0000AEDB101274D
:105D9000069704270DF1380CBC441CF801CCBCF16B
:105DA000000F38D00DF18808B04418F8018CCDF8F8
:105DB0003480B8EB0C0C01D5CCF1000CDDF8188068
:105DC000C44526DD042F02D025E00427E0E79DF836
:105DD0003BC0DDF83480CDF810C00CF12D0CA8EBE1
:105DE0005C0C1CF12D0C01D5CCF1000CDDF81880F9
:105DF000C4450EDDDDF834C0DDF81080ACEB480C96
:105E0000BCF12D0C01D5CCF1000CDDF81880C44597
:105E100001DC4FF0010A7F1E17F0FF07BAD155EAE7
:105E20000A070FD1022E0DD910AF07EB8607DDF858
:105E30004CC057F8047CB7EB5C1F03D9751E0127D3
:105E40006DB22497771EAF4211DABAF1000F0ED16E
:105E50000DF1400C0CEB86065CF8258056F8046CBE
:105E6000B8EB460F03D200264FF0FF35249617F00B
:105E7000FF0689D11A9E16B10025249509E0249EBB
:105E80003EB122AC10AE645D56F825502D34E4B21C
:105E90001695279D994E012D0BD00525BBF1010FBD
:105EA0000FD0A9EB02078270062F04DDA9F10602CC
:105EB00007E01925F2E7A2EB0902AA4202DD09EB8D
:105EC00005028270827822B3B1F8B85325B1B3F5D8
:105ED000AF7F03D2570106E05501FBE705EB45070D
:105EE00007EB4217BF08A1F8B873BFB2A7EB050CC8
:105EF000BCF1A00F04DDB3F5AF7F01D9A03506E0FA
:105F0000EF1BA02F05DDB3F5AF7F02D9A03DA1F8AF
:105F1000B85391F89C73E51B002D05DDB1F89EC3C5
:105F2000654501DA9C2C08D3002D08D53D1BB1F83E
:105F3000A073BD4203DA462C01D9012700E00027F7
:105F4000BBF1010F00D100279DF885504FF0000CE8
:105F50007DB1A02D00D39F2500EBC505D5F84CC31E
:105F6000D5F850534FEA6C3C0CFB0CFC6D1305FB51
:105F700005CC91F8A853B146062D03D96FF006065B
:105F8000322507E0032D03D96FF001061E2501E03D
:105F900001261425DDF89080B8F1010F30D177B3D8
:105FA000A24206D2BEF1000F03D102F14107A7427F
:105FB00014D8A24219D90B9F37440F9EB74214DA66
:105FC000BEF1000F11D12544AA420EDA4A4D169AAD
:105FD000AA420AD90CEB4C05954206D284706201A4
:105FE000A1F8B823169AC1F8B4238278A24207D147
:105FF0000522A1F89E2381F89C43022208E0FFE7D6
:10600000B1F89E23521DA1F89E23B1F8A023921C43
:10601000A1F8A0234C46BEF1000F0DD191F8B12399
:1060200086784D2A02D2154601E05FE04D25AE424A
:1060300002D2BBF1000F03D0BBF1010F1ED006E06E
:106040004D2A00D34D2282705201A1F8B823058950
:106050000189B1B12A4A12785143827801EBC20119
:10606000284A1278D140018189B24A1B402A0BDDAF
:10607000B3F5AF7F08D905F140010DE08178CD007F
:10608000E6E78178C900EEE7691A402905DDB3F536
:10609000AF7F02D9A5F1400101810189C9080170D2
:1060A000FDF7CAF840B2002801DD012001E04FF001
:1060B000FF3061680A89AA4205D10A7B920702D1A2
:1060C0000A781044087001F5805090F8CA2380F8CF
:1060D000CB2390F8C92380F8CA2390F8C82380F80E
:1060E000C923897880F8C813239818B90348007821
:1060F00005280FD1002107E020BF02008C240020DA
:1061000000070400010704002248406800F58050A1
:10611000C0F898131F484068C168962926D900F531
:106120008051426B91F88D3300EB8303C3F84C2D03
:1061300091F88D23836D00EB820202F58052D366C5
:1061400091F88C23521CD2B281F88C2391F88D33B4
:106150005B1CDBB281F88D33C72A02D9002281F89B
:106160008C23C72B02D9002281F88D23B0F8BC10F4
:10617000A0F8BE10B0F8BA10A0F8BC101599A0F89D
:10618000BA1050F80C1F491C016031B00120BDE865
:10619000F08F00008C2400202C4A732319285268A9
:1061A00006D8A3EB8100401A82F8EF04492007E0EB
:1061B0001E280AD8A3EB4100401A82F8EF044B20B6
:1061C000A0EB410082F8F0047047232807D875201F
:1061D000A0EB4100401A82F8EF044C20F0E7282899
:1061E00006D87820A0EB810082F8EF04502029E047
:1061F0002D2806D87C20A0EB410082F8EF04512026
:1062000020E0322804D8802082F8EF04522019E0E0
:106210005423372805D8862082F8EF04A3EB8100A9
:10622000D0E73C2807D8892000EB410082F8EF0432
:10623000A3EB4100C6E79420A0EB4100401A82F88E
:10624000EF045620A0EB4100401ABBE79824002041
:1062500070B5524970200A7800EA02145048037859
:1062600054EA13154FF0000407D103F00F03037035
:1062700002F0F80040F00400087000F007FE4A4DFC
:10628000484806216860297000F8144B3F2140F807
:10629000104C40F80C4CA0F8BC4344870487C486DB
:1062A0008486C460046104604460846044618461E5
:1062B000C461046244628462C4620463C4878487E4
:1062C00080F8414080F84040B0F1140000EB4102FA
:1062D0004318A2F89042491E83F8104309B2A2F86D
:1062E00050430029F2DAA0F8D24300214FF48E7314
:1062F00000EB4102491C09B2A2F858409942F7DB71
:1063000080F8574080F856405FF03F0100EB4102B3
:10631000491EA2F8D44309B2A2F854440029F5DA80
:10632000A0F8D444A0F8D64480F8D844A0F8DA44C1
:10633000A0F8DC4480F8DE44A0F8E644A0F8E44489
:10634000A0F8E244A0F8E04440F20D21C0F8E814BF
:10635000012180F8EC14144980F8ED44083180F8EC
:10636000EE44087810B1C978FFF716FF686800217D
:1063700080F8F14400EB4102491C09B2A2F8F8444C
:106380002829F7DB80F8F644152180F8F51480F809
:10639000F41480F8F31480F8F21470BD8624002001
:1063A00085240020C0550020982400202DE9F04FBE
:1063B0000646002089B0014602900890069005909C
:1063C00004900446079001900390054682460346D8
:1063D0008146FE4A0090107805287CD00428FCD025
:1063E00050684768032F1DD9B0F85070A7EB060C12
:1063F000BCF1640F06DDB0F85280A7EB0808B8F1D5
:10640000640F09DC6FF06308C4450BDAB0F852C0C2
:10641000A7EB0C07474505DAB0F8527037447F0800
:10642000A0F85070B0F84C70A0F84E70B0F84AC0A8
:10643000A0F84CC0B0F848809346A0F84A80B0F865
:106440005020A0F84820424467443A4492088260B1
:1064500000EB4102491CB2F8FA7489B2A2F8F87450
:106460002729F5D3A0F846655FF0000100EB41074E
:10647000491CB7F8F87489B23B442829F6D328217F
:10648000B3FBF1F18BB200214FEA0B0800EB4102A4
:10649000B2F8F824D21A00D55242491C524489B2AB
:1064A0001FFA82FA2829F1D3304600F071FCD8F89F
:1064B0000410642240464F68B7FBF2F302FB1372EC
:1064C000012A01D1B1F94A60022A01D1B1F94C6027
:1064D000032A03D100E0FDE3B1F94E600378022BFB
:1064E00047D0062B45D04FF47A728868904208D284
:1064F000122F06D9022B04D0022088F8000000F0E9
:1065000083FCD8F804004168B1F5DC6F09D98368D1
:1065100040F2DC57BB4204D290F8EE345B1C80F8AA
:10652000EE34B0F85020B0F85230D21A0FFA82F898
:1065300012297DD9DFF894B29BF80030022B54D099
:1065400040F24477B94250D240F2D667B94202D302
:1065500090F856707FB140F24657B94242D390F856
:106560005600E0B3052B37D05FF004008BF8000035
:1065700032E04622B9E700217A2000F099FED021CE
:10658000012000F095FE6E210C2000F091FE782194
:10659000162000F08DFEDBF8040040F23A725F46F0
:1065A0004168914221D390F8EE04322818D2FCF7CA
:1065B00043FE052190FBF1F201FB12007A68401CBA
:1065C000137800EB1310733082F85600462000EB6E
:1065D000131082F85700397000F016FCCCE301E08C
:1065E0000520C3E703208BF80000DBF8040000223D
:1065F0004FF0010B02E00AB14FF00008D0E903139D
:1066000008EB4107C0E9038103EB070E704B4169BA
:10661000876940F2EB7C4B4307FB0CF703EB470722
:106620000BEBE727AEEB6703C0E90613436100E01D
:1066300048E0416A40F2737C5F1A016AC0E90831A0
:10664000816A644B8E465943C36A03FB0CF301EB2A
:1066500043030BEBE321A7EB6103C0E90BE3836288
:10666000816B476B1944C0E90D37C7F1000CC36B50
:10667000584F9E460C377B4301EB4C01076C40F2B0
:106680005F7C07FB0CF703EB47070BEBE723A1EB62
:106690006301C0E90F1E90F8EC3419410F464164C4
:1066A00000D57F42B7F5804F04DD012B02D10523D1
:1066B00080F8EC3400EB4203521C92B2A3F8E014D1
:1066C000042A98D3414840684168BE297CD9D22128
:1066D00000EB41029046B2F85830B2F856709C4632
:1066E000B2F85A20DB1B0FFA83FBA2EB0C020FFA65
:1066F00082FEBBF1000F63DCBEF1000F65DD0122FD
:1067000080F854204A1E92B2A1F1460317E000BF60
:1067100000EB4207B7F856C0B7F85470ACEB070768
:106720003FB2002F02DA4FF0010202E004DD4FF029
:10673000000280F8542004E0A2F1010292B29A42D1
:10674000E6DC9AB201F1460C0EE000BF00EB42031A
:10675000B8F95870B3F95830FB1A002B02DD00234A
:1067600080F85430521C92B26245EFD990F8542010
:10677000012A22D15FF0000200EB4203B3F89272CB
:10678000A3F890728718521C97F811C387F810C3AA
:10679000B3F8527392B2A3F850733F2AECD3B8F80F
:1067A0005830A0F8CE33B0F8E834A1F58E721A4410
:1067B000A0F80E23022280F84F23BBF1000F76DDF4
:1067C000BEF1000F73DC07E076E070E09824002053
:1067D0002BE0FFFF3AE1FFFF012280F855204A1C21
:1067E00092B201F146034FF48D7E16E000EB4207B2
:1067F000B7F85AC0B7F85870ACEB07073FB2002F94
:1068000002DD4FF0000202E004DA4FF0010280F8EE
:10681000552006E002F1010292B29A4201D272457D
:10682000E4D990F8EC24012A04D064229346A1F123
:10683000460211E04FF44872F8E700BF00EB420750
:10684000B8F958C0B7F95870DC44BCEB070702D55B
:10685000002780F85570521C92B29A4201D87245B6
:10686000ECD990F85520012A21D1002200EB4203F7
:10687000B3F89272A3F890728718521C97F811C35C
:1068800087F810C3B3F8527392B2A3F850733F2A3B
:10689000ECD3B8F85830A0F8CE33B0F8E834A1F50E
:1068A0008E721A44A0F80E23012280F84F23491C4F
:1068B00089B2D5297FF60CAF416840F2B6329142D9
:1068C00078D33222B1FBF2F302FB1311002971D10C
:1068D0004FEA010B00EB4102491CA2F854B489B203
:1068E000A2F8D4B34029F5D3D0F8E814A1F61C4897
:1068F0005FF0000100EB4102B2F8907247454AD9BF
:10690000431893F810C3BCF1020F44D193F811332C
:10691000012B40D1B2F89232DB1B049F9BB207EBF4
:10692000830704974FF6FF7707EA830300EB4407DA
:10693000A7F85434B2F95033A3B1B2F952C34FEAB5
:106940008C1C9CFBF3F31BB203F14F0CBCF1450F05
:1069500008D2DDF804C063441BB20193009B5B1CAA
:10696000DBB200938CB1B2F890C2B0F8D233ACEB8A
:106970000303B7F852C40CEB8303DDF808C09BB2E5
:106980009C44CDF808C0A7F8D233641CB2F8923208
:10699000E4B2A0F8D233491C89B23F29AAD3012C12
:1069A00005D00299621EB1FBF2F189B20891002173
:1069B000621E0FE092E100BF00EB4103B3F8D47315
:1069C000089BFB1A00D55B42059F491C3B441BB248
:1069D00089B205939142EFDB05994FEA211E009998
:1069E00021B1019B93FBF1F109B2039124B1049908
:1069F000B1FBF4F189B207910299090907D040F679
:106A0000B8314A4302990909B2FBF1F1017090F8DB
:106A1000F41480F8F51490F8F334884680F8F434D0
:106A200090F8F21480F8F314027880F8F224D0F889
:106A300004C040F24C47BC4541D3571803EB080152
:106A400039448F080021431893F8F234DB1B00D53A
:106A50005B42491C4B4489B21FFA83F90429F2D3E3
:106A6000C74B1B889A4502D3B9F10A0F05D990F894
:106A7000F6140A2910D2491C0CE090F8F1342BB11D
:106A800090F8F61459B1012B03D005E080F8F6B464
:106A900015E0491E80F8F614C9B2022905D290F813
:106AA000F114012901D180F8F1B490F8F614042909
:106AB00005D390F8F11411B9012180F8F1140021E7
:106AC0000EE000BF00EB4103B3F85474079BFB1AC0
:106AD00000D55B42069F491C3B441BB289B206931A
:106AE000A142EFD3A74B06995F784FEA211947B12E
:106AF000997831B117FB07F4A34D6943B1FBF4F169
:106B00008DB2412A10D2A2F146013A2A01EB41018D
:106B100005D2822404EB610402F10F0113E0782412
:106B200004EB6104511D0EE0A2F14601552A01EB70
:106B3000410104D9692404EB6104511F03E06E2470
:106B400004EB61041146DDF80CC06FF016081CFB65
:106B500008FC4FF00A080CF5B47C9CFBF8FC0FFA1B
:106B60008CFC0CEB4C0C4FEA4C0C0CEB840494FBAF
:106B7000F8F493F800C024B2BCF1000F6CD093F885
:106B80000380B8F1000F03D0B8F1010F3AD063E0F1
:106B9000BCF1230F11D290F8EF74733C07EB64043F
:106BA00090F8F0744A3924B207EB61010DB3B82DA7
:106BB0001FD2462A1DD9641F1AE0A5F1B8024FF072
:106BC0002E0C02FB0CF24FF0500C92FBFCF2733CCB
:106BD00002EB640490F8EF244A39224414B290F88E
:106BE000F024A52F02EB610103D2C82D01D90A348C
:106BF00024B21A7982B35B7973B3763C224414B21F
:106C00004B3928E0BCF1230F0FD290F8EF246E3CF3
:106C100002EBA40490F8F024483902EBA10195B1ED
:106C2000B02D10D2641F24B20DE06E3C6210B83D4E
:106C300090F8EF4402EBA502224414B290F8F0243D
:106C4000483902EB61011A7932B15B7923B1703CAA
:106C5000224414B246391944039A5542052295FB41
:106C6000F2F302FB1352521C01F1190352B29C427F
:106C700000DA1C4602F19F039C4202DC393B9C4235
:106C800000DA1C4602F16603994201DD194603E071
:106C90003D32914200DA11463C4AB423127802EBAD
:106CA000820203EB4205754518DD8C2303EB42039A
:106CB0004B4513DD009A032A10D3B0F8DA2422449E
:106CC000A0F8DA24B0F8DC241144A0F8DC1490F821
:106CD000DE1400E050E0491C80F8DE1429494268C7
:106CE000083940F246539A421ED33223B2FBF3F4E2
:106CF00003FB1423C3B90978042915D0052913D03F
:106D000090F8DE1406290AD3B0F8DA34B3FBF1F3B5
:106D100080F85630B0F8DC34B3FBF1F102E000212A
:106D200080F8561080F85710B0F85010A0F85210A4
:106D3000A0F85060962A1CD300224FF48D740021D5
:106D400000EB4103491CB3F85A5089B2A3F85850DC
:106D5000A142F5D900EB4201521CB1F8E034A0F891
:106D60008E32D0F8E81492B2491CC0F8E814042A14
:106D7000E5D34168491C416009B00120BDE8F08FAE
:106D800002070400A024002080380100FC06040053
:106D900070B51C4C2178022922D0616864234A68AE
:106DA000B2FBF3F503FB152303B92AB991F8481593
:106DB000002915D0FA2814DA5821162000F078FAA4
:106DC0000C2000F056FA00F0F00040F00B010C200F
:106DD00000F06EFA606890F84815491C80F8481574
:106DE00070BD7821162000F063FA0C2000F041FA03
:106DF00040F00F010C2000F05BFA6168002081F880
:106E0000480570BD9824002010B58021012000F0B5
:106E10004FFA2E210C2000F04BFA2021852000F0A3
:106E200047FA164801787F2000F042FA14480078AB
:106E300000F03F0040F03001802000F039FA1148A6
:106E4000007800F0F801812000F032FA0E48017855
:106E5000822000F02DFA0021852000F029FA02217D
:106E60007A2000F025FA7821162000F021FA0D2171
:106E7000BDE81040172000F01BBA00008424002059
:106E800085240020862400208724002070B51D481A
:106E9000012104781C4805787A2000F009FAF821CD
:106EA000012000F005FA19480078012802D1F021EC
:106EB00000F0FEF96E210C2000F0FAF92021852067
:106EC00000F0F6F9124801787F2000F0F1F9214630
:106ED000802000F0EDF92946812000F0E9F90D4805
:106EE0000178822000F0E4F90021852000F0E0F92B
:106EF0006821162000F0DCF9BDE870400821172059
:106F000000F0D6B98524002086240020FE06040067
:106F1000842400208724002010B50821012000F0DF
:106F2000C7F98021022000F0C3F94E210C2000F0A7
:106F3000BFF98821162000F0BBF922210C2000F0B7
:106F4000B7F9F021012000F0B3F902210C2000F084
:106F5000AFF922210C2000F0ABF9F021012000F064
:106F6000A7F902210C2000F0A3F922210C2000F047
:106F70009FF9F021012000F09BF902210C2000F084
:106F800097F922210C2000F093F9F021012000F064
:106F90008FF902210C2000F08BF910BD10B578217B
:106FA000162000F085F9D021012000F081F92E2172
:106FB0000C2000F07DF910BD10B5002400BF0BE0DF
:106FC000154A02EB44025178134A12F8140000F0FB
:106FD0006FF900B11EE0641C122CF1D30F48007849
:106FE000B0B97F2000F045F90D490870802000F00D
:106FF00040F90C490870812000F03BF90A490870FB
:10700000822000F036F90949087001200349087010
:10701000012010BD0020FCE7D80604007E240020DB
:10702000842400208524002086240020872400203A
:1070300010B502217A2000F03BF98821012000F0F0
:1070400037F96E210C2000F033F97821162000F07A
:107050002FF90D21BDE81040172000F029B90000DC
:1070600010B52021852000F023F91A4801787F20EF
:1070700000F01EF91848007800F08F0040F0300151
:10708000802000F015F91548007800F0F801812003
:1070900000F00EF912480178822000F009F9002171
:1070A000852000F005F902217A2000F001F9802105
:1070B000012000F0FDF82E210C2000F0F9F87821D5
:1070C000162000F0F5F80D21BDE81040172000F063
:1070D000EFB80000842400208524002086240020AE
:1070E000872400202DE9F04104463B480F460678EE
:1070F0003A4806F00F020578702000EA051040EAD1
:10710000161105F0F800022C02D0072C07D00AE077
:1071100049080B0742EA136640EA111503E042F002
:10712000F00640F007052021852000F0C1F82C482A
:1071300001787F2000F0BCF83146802000F0B8F8DC
:107140002946812000F0B4F826480178822000F01A
:10715000AFF80021852000F0ABF800217A2000F084
:10716000A7F87821162000F0A3F80D21172000F0D1
:107170009FF8B7B1062C08D0072C06D0052C0AD0F2
:10718000042C4FF0F00101D006E0F821012000F0BE
:107190008FF86F211BE0F821012000F089F82F21E2
:1071A00015E0062C08D0072C06D0052C0AD0042C9C
:1071B0004FF0D00101D006E0D821012000F078F88E
:1071C0006E2104E0D821012000F072F82E21BDE8E4
:1071D000F0410C2000F06CB88524002086240020AB
:1071E000842400208724002038B5082000F041F8CE
:1071F0008DF800000D2000F03CF88DF801000E2005
:1072000000F037F88DF802009DF80000C0009DF8EE
:10721000011040EAC1209DF8021001F00701084367
:1072200084B2B4F5004F01DB47F6FF74204638BD49
:1072300038B5092000F01DF88DF800000A2000F094
:1072400018F88DF801000F2000F013F88DF80200F7
:107250009DF8000000029DF8011001F00F0140EAC6
:1072600001109DF8021001F00F0140EA01042046D0
:1072700038BD01B582B00023012202A988200AF09E
:107280009FFF01231A4601A989200AF099FF9DF862
:1072900004000EBD70B5054CDDE904562070617028
:1072A000A270E3702571667170BD0000A0240020FB
:1072B00038B505460C468DF800508DF80140012385
:1072C0000222694688200AF07BFF002038BD0000BA
:1072D00010B50849087800BF4FF0A04211460B4690
:1072E000012404FA00F24FF4A164E25000BF00BF91
:1072F00010BD00007324002010B50849087800BFB5
:107300004FF0A04211460B46012404FA00F240F26D
:107310000C54E25000BF00BF10BD000073240020D9
:10732000F0B50D49087801210A4600242346254678
:1073300000BF4FF0A0473E4641EA420747EA8407B4
:1073400047EA032747EA054C06F5E06747F820C0FF
:1073500000BF00BFF0BD00007324002030B503461D
:107360000C46002003E0255C1D54451CA8B2904249
:10737000F9DB30BD70B5084900200DF035FE04463C
:1073800000BF254635B100BF04A22F21284606F0D4
:1073900093FC00BF00BF70BDFD8E03002E2E5C6D00
:1073A0006F75646C655C626174746572795C42616E
:1073B00074746572795F4144432E630070B506466C
:1073C0000C4615460C4806600C4804800C480088A2
:1073D00010B10C48006858B9BC2012F0D3FC002052
:1073E000074908800749086003480068FCF722FF46
:1073F0000548057070BD000074230020782300202C
:107400006C230020702300206E23002010B502465C
:10741000064B5A811973002005E00023034C24F821
:107420001030431CD8B20528F7DB10BD7E3F00208A
:1074300070B5304E30494FF4EA20FCF703FD0446A6
:107440002E494FF4EC20FCF7FDFC054634B12A48E8
:1074500001884FF4EA2000F009FB0446012D06D113
:10746000264801884FF4EC2000F000FB04464CB99C
:1074700045B907202049088020490880FCF700FD15
:10748000002070BDA4B9012D12D11C4800884FF412
:10749000EA2202EB402000F580516A023046FFF7F5
:1074A0005DFF0720144908800020FCF7DBFD1EE08B
:1074B000012C11D185B9104800884FF4EA2202EB63
:1074C000402162023046FFF749FF07200B49088040
:1074D0000120FCF7C7FD0AE0074800884FF4EA22C4
:1074E00002EB40214FF400723046FFF737FF0120D6
:1074F000C7E70000007E00208421002086210020B4
:1075000070B53C201849487100200872012088712C
:107510000020C871154A0121154806F019FC0446DF
:1075200000BF254635B100BF12A25F21284606F0F4
:10753000C3FB00BF00BF0B200DF065FF0C200DF05A
:1075400062FF0D200DF05FFF0F200DF05CFF0F209C
:107550000DF0C2FF0D200DF0BFFF0B200DF0BCFFA2
:107560000C200DF0B9FF70BDD04100204120030078
:10757000D40604002E2E5C6D6F75646C655C7370B0
:107580006F72745C68725C68725F6170702E630009
:107590002DE9F041172001210A4600231D461E4611
:1075A00000BF4FF0A04C674641EA420C4CEA830C06
:1075B0004CEA052C4CEA064807F5E06C4CF82080B4
:1075C00000BF00BF0DF050FF094A0121094806F035
:1075D000BFFB044600BF254635B100BF06A240F2FE
:1075E000C921284606F068FB00BFBDE8F081000015
:1075F000F143030010D703006273702E6300000094
:1076000070B50025002107200DF0C2FE03210620E1
:107610000DF0BEFE00201049087007200DF084FF19
:10762000002407E0FDF730FA0544642008F0DEFE90
:10763000601CC4B20A2CF5DB0A20B5FBF0F0064949
:107640004880488808F00AF9034988800879FCF7DF
:1076500027FA0149C88070BDC422002010B500205F
:10766000024908800846FCF76CFE10BD98210020F6
:10767000034B1860034B1960034B1A6070470000FE
:10768000582300205C23002060230020FF2202708A
:10769000002282728280C2800281002105E00023E4
:1076A00000F10B0253544A1CD1B23C29F7DB70475E
:1076B00000B508490978012901D1FA2101E04FF408
:1076C000967108460321FFF7A1FE002002490870C9
:1076D00000BD0000C1230020C82300207CB56846FF
:1076E0000AF0ECFA00242A206E4908709DF8040084
:1076F00048709DF8050088706B484079C8706A48EA
:10770000807908716848C07948710020887167489D
:1077100000880012C8716548007808720921614824
:10772000FCF78CFA5F4948720A214FF4C86003F0F5
:10773000ADF900B97CBD09215D48FCF77FFA5C49D1
:10774000497A884200D0F5E759480078402806D0A9
:10775000432838D044285DD045286FD15FE0544895
:10776000C578007900EB05255148407900EB0525E7
:107770004F4880794F4908804D48C079097800EB1F
:1077800001204C4908804C48056000204B490860A6
:107790004B4908704848006810F4000F06D0434871
:1077A000008844490988884200D148E02846FCF70F
:1077B00041FD00B943E03E49087A04F03DFC0D204C
:1077C00003F094F93BE03A48807928B901213D481B
:1077D00001750221C1771BE035488079012805D168
:1077E0000121384801750021C17711E030488079C6
:1077F000022805D10121334801750421C17707E032
:107800002B488079032803D102212E48C1770175C6
:10781000012414E0264880792B4908700FE02448A1
:10782000C478007900EB04242148407900EB04245B
:107830001F48807900EB042401E0FFE700BF00BF90
:107840006CB31B480078174908709DF80400487015
:107850009DF805008870200EC870200C0871200A61
:1078600048718C7109210F48FCF7E8F90D494872FD
:10787000002609E00A210B4802F096FC4FF49670AE
:1078800008F0C0FD701CC6B2032EF3DB0848007878
:10789000432804D10DA200210F4806F00DFA00BFC5
:1078A00048E70000283E002000340200802300202A
:1078B000483E0020782300207423002070230020FD
:1078C0006A230020007E002069230020726669641C
:1078D0007265736574000000BCBBBBBB04480088C4
:1078E000A0F57F41FF3901D1002070470120FCE75E
:1078F0002C230020024610882B4B1B68984217D877
:10790000907810F0010F13D09088274B1B68984295
:107910000ED8907910F0010F0AD01089224B1B6805
:10792000984205D8907A10F0010F01D001207047DD
:1079300008881D4B1B68984217D8887810F0010FF3
:1079400013D09088184B1B6898420ED8907910F08D
:10795000010F0AD01088144B1B68984205D8907804
:1079600010F0010F01D00120E1E708880E4B1B68E1
:10797000984217D8887810F0010F13D088880A4BE6
:107980001B6898420ED8887910F0010F0AD0108831
:10799000054B1B68984205D8907810F0010F01D074
:1079A0000120C4E70020C2E7A023002070B50446F0
:1079B00001250322E11C0348FBF77BFC00B10025F5
:1079C000284670BD0334020030B502460B46002144
:1079D000002400BF1DE002EB8100807810F0010F51
:1079E00008D002EB810000881F4D2D68A84201D805
:1079F000601CC4B202EB81000088B0F5FA7F05DAA2
:107A000002EB8100807810F0010F00D10024481CA7
:107A1000C1B20329DFDB00211DE003EB8100807888
:107A200010F0010F08D003EB810000880E4D2D6887
:107A3000A84201D8601CC4B203EB81000088B0F5F5
:107A4000FA7F05DA03EB8100807810F0010F00D196
:107A50000024481CC1B20229DFDB022C01DD012019
:107A600030BD0020FCE70000A0230020F0B5ADF5FC
:107A7000007D06460C46002706EB44214FF40072B9
:107A80006846FFF76BFC002503E01DF80500474042
:107A90006D1CB5F5007FF8D31FB901200DF5007DF1
:107AA000F0BD0020FAE7000005480078C12805D0A5
:107AB00003480078C22801D0012070470020FCE76D
:107AC000883E002038B50446042C2AD169462E2071
:107AD00000F04BF908B9002038BD9DF8000000F017
:107AE0001F0000909DF8000000909DF800102E20CF
:107AF00000F07AFA08B90020EEE76946242000F089
:107B000034F908B90020E7E79DF8000000F0BF0055
:107B100000909DF80010242000F066FA08B90020BB
:107B2000DAE794BB6946242000F01FF908B9002069
:107B3000D2E79DF8000000F0BF0000909DF8000023
:107B400040F0400000909DF80010242000F04CFA16
:107B500008B90020C0E769462E2000F006F908B9F0
:107B60000020B9E79DF8000000F01F0000909DF88C
:107B7000000040EA8410C0B200909DF800102E2052
:107B800000F032FA08B90020A6E7FFE7012C32D155
:107B90006946242000F0E9F808B900209CE79DF828
:107BA000000000F0BF0000909DF8000040F0400091
:107BB00000909DF80010242000F016FA08B900206B
:107BC0008AE769462E2000F0D0F808B9002083E744
:107BD0009DF8000000F01F0000909DF8000040EAB2
:107BE0008410C0B200909DF800102E2000F0FCF927
:107BF00008B9002070E7022C32D16946242000F039
:107C0000B4F808B9002067E79DF8000000F0BF0055
:107C100000909DF8000040F0400000909DF800109A
:107C2000242000F0E1F908B9002055E769462E202C
:107C300000F09BF808B900204EE79DF8000000F026
:107C40001F0000909DF8000040EA8410C0B2009030
:107C50009DF800102E2000F0C7F908B900203BE77E
:107C6000032C32D16946242000F07FF808B90020A7
:107C700032E79DF8000000F0BF0000909DF8000082
:107C800040F0400000909DF80010242000F0ACF976
:107C900008B9002020E769462E2000F066F808B9F0
:107CA000002019E79DF8000000F01F0000909DF8EB
:107CB000000040EA8410C0B200909DF800102E2011
:107CC00000F092F908B9002006E7012004E71CB58E
:107CD000044601A9282000F048F808B900201CBD7E
:107CE0006946292000F041F808B90020F7E79DF81F
:107CF00004009DF8001000EB0120208001A92A203B
:107D000000F033F808B90020E9E769462B2000F0BD
:107D10002CF808B90020E2E79DF804009DF8001057
:107D200000EB0120608001A92C2000F01EF808B9AA
:107D30000020D4E769462D2000F017F808B900208C
:107D4000CDE79DF804009DF8001000EB0120A08015
:107D50000120C4E710B5044621460F2000F005F8C5
:107D600008B9002010BD0120FCE77CB504460D4693
:107D700013200DF0A3FB0020019044F080008DF84B
:107D8000040002200DF10603024601A90090002024
:107D900012F0C0FC10B19DF80700287013200DF000
:107DA00006FC01207CBD38B5044669462020FFF75B
:107DB000DCFF08B9002038BD9DF8000000F0F80095
:107DC000009004F007009DF80010084300909DF813
:107DD0000010202000F008F908B90020EBE701208E
:107DE000E9E738B5044669462320FFF7BEFF08B926
:107DF000002038BD9DF8000000F07F0000909DF845
:107E0000000040EAC410C0B200909DF8001023208A
:107E100000F0EAF808B90020EBE70120E9E738B5FF
:107E2000044669462320FFF7A0FF08B9002038BDAB
:107E30009DF8000000F0BF0000909DF8000040EAAF
:107E40008410C0B200909DF80010232000F0CCF800
:107E500008B90020EBE70120E9E738B50446694698
:107E60002320FFF782FF08B9002038BD9DF80000ED
:107E700000F0CF0000909DF8000040EA0410C0B26E
:107E800000909DF80010232000F0AEF808B9002003
:107E9000EBE70120E9E700001CB5044601A920201A
:107EA000FFF763FF08B900201CBD69462320FFF7D8
:107EB0005CFF08B90020F7E79DF8040010F0F00F10
:107EC00007D12948007800F0F0009DF8041008431D
:107ED000019024B1012C1FD0022C30D109E09DF873
:107EE0000400214908709DF8040000F00F00019083
:107EF00027E09DF8040000F0F70001909DF80400D1
:107F000001909DF8000000F0F70000909DF800003F
:107F100040F00800009014E09DF8040000F0F70025
:107F200001909DF8040040F0080001909DF80000C9
:107F300000F0F70000909DF80000009001E00020A4
:107F4000B2E700BF9DF80410202000F04DF808B9FA
:107F50000020A9E79DF80010232000F045F808B99B
:107F60000020A1E701209FE7C223002038B5044686
:107F700069462020FFF7F9FE08B9002038BD9DF8BA
:107F8000000000F00F0000909DF8000040EA04108F
:107F9000C0B200909DF80010202000F025F808B92C
:107FA0000020EBE70120E9E738B504461F2C01DD8E
:107FB000002038BD69462E20FFF7D7FE08B9002003
:107FC000F7E79DF8000000F0E00000909DF8000049
:107FD000204300909DF800102E2000F005F808B90D
:107FE0000020E6E70120E4E77CB504460D461320B7
:107FF0000DF064FA0020019004F07F008DF8040079
:108000008DF8055002200DF10603024601A90090EB
:10801000002012F07FFB13200DF0C9FA01207CBD77
:108020002DE9F04F87B082468B4617461C46DDE9A6
:10803000108520220C2104A8FBF722F9002004A9B6
:108040000855A04505DC4246394604A8FBF706F969
:1080500029E0287838B3287804EB0801884222D038
:108060002878A0420CDC2878201AC6B205E017F860
:10807000010B04A98855701CC6B2A642F7DB12E0BA
:1080800000260DE02878001B304400F0FF09C145B0
:1080900000DB07E017F8090004A98855701CC6B278
:1080A000A642EFDB00BF129860B9062004A90A229D
:1080B0000523CDE9002102905A4651460E4803F0AF
:1080C000ADF90BE0062004A90A220523CDE9002121
:1080D00002905A465146084803F0A0F92878401CFF
:1080E0002870287804EB0801884201DB0020287002
:1080F00007B0BDE8F08F00006EFD03007CB50446BC
:108100000D2C50D100200DF07FFB6C480078C12869
:1081100008D114200BF0CEF801220421032001F035
:10812000DDFA25E065480078C2280DD100206449B9
:108130000870084601781E200BF05CFB6048007850
:10814000401C5F49087013E0002000905B4D0190D7
:108150002B795C4D95F82050C5F38105012D00D198
:1081600000E000252A46554DE978A8780AF0E4FF9A
:108170000DF056FB01200DF07FFB142052490870D2
:10818000FFF792FC38B11E204F49087009220121E7
:108190000F2001F0A3FA0121042012F0F7FB0020C8
:1081A0004A49087088E00B2C70D1FFF77DFC90B134
:1081B0000E200DF0C6F958B944480078401C4349D8
:1081C00008700846027842A1002002F089FA02E015
:1081D00000203E490870FFF767FC38B33F4800783D
:1081E0003A490978884221D0384800783B490870DC
:1081F00000200DF009FB324801783448057805EB82
:10820000D57040102D4ECDE9000133792D4E96F8F2
:108210002060C6F38106012E00D100E00026324620
:10822000264EF178B0780AF087FF10E023480078F6
:10823000C22805D12248017800200BF0DBFA06E0C5
:108240001E480078C12802D114200BF033F81C48D6
:108250000078401C1A4908700DF0E2FA1B480078BB
:10826000072808DB00221146104601F037FA07F014
:108270007FFD00207CBD14480078401E1249087024
:1082800008460078C0B90020F4E7FFE7012C13D1BD
:10829000FFF70AFC80B90021042012F077FB0AF0F6
:1082A000E7FC38B10AF0EEFC10B10D480078E1E7C8
:1082B0000B20DFE70120DDE71420DBE7883E00200C
:1082C00038240020007E0020E023002064240020C9
:1082D000616C61726D5F25640D0A000065240020E9
:1082E000E2230020014603480078034A1070002072
:1082F00070470000E1230020E223002070B505460E
:108300002548C08808B9012401E0234884790AF08F
:10831000AFFC08B10EF02AFA0D2D19D100200DF096
:1083200073FA1E48007810F0010F04D0611EC8B225
:108330000BF006F802E020460BF002F80DF070FAA0
:108340000121042012F022FB01200DF095FA18E023
:108350000B2D16D111480078401E104908700020DE
:108360000DF052FA0D48007810F0010F04D0611E94
:10837000C8B20AF0E5FF02E020460AF0E1FF0DF086
:108380004FFA012D03D004480078012801D00120C4
:1083900070BD1320FCE70000C4220020E023002071
:1083A00010B504460C2C01D00D2C1AD13248D0F84F
:1083B0000E0042F21071B0FBF1F0304908602E4817
:1083C00090F8200000F0030001280AD10846006858
:1083D00041F64601484342F21071B0FBF1F02749E3
:1083E00008600D2C16D100200DF00EFA012104209A
:1083F00012F0CCFAFF21214800680AF0BBFF1E48AA
:1084000090F8D0001E4908700DF00AFA01200DF016
:1084100033FA2FE00B2C19D119480078401E184967
:1084200008700846007828B9164800781649087080
:10843000002010BD00200DF0E7F9114801780F4829
:1084400000680AF097FF0DF0EBF913E0012C09D159
:108450000021042012F09AFA0749D1F8B3000AF07B
:1084600053FCE6E70A2C05D1064800780649087057
:108470000020DEE70520DCE7007E0020402400200D
:10848000E0230020E1230020E22300203EB5044643
:108490000D2C28D10121042012F078FA0020664921
:1084A0000870664908700DF0AFF900206449087043
:1084B0000846007800F00103624890F8222090F806
:1084C00021105D4800780AF02BFD5D480078401CC3
:1084D0005B4908700DF0A4F901200DF0CDF90620DC
:1084E00059490870A5E00B2C7DD157480078401EF3
:1084F000554908705548007820B154480078401E0E
:10850000524908705048007818BB4C48007860B950
:10851000012003F09DF9002003F09AF9012047495A
:10852000087078204849087013E044480078032810
:1085300003D10E2002F0DAFA05E0012003F088F9F9
:10854000002003F085F94248007842490870002075
:108550003EBD3A48007801280AD10020FCF73CFBD8
:10856000B0B3022035490870012003F071F92FE003
:1085700032480078022810D16846FCF7BDF902287D
:1085800026D178203049087003202C490870012238
:108590001146104601F0A2F81AE028480078032896
:1085A00016D16846FCF7A8F99DF80500224909781C
:1085B00088420DD02548007850B90620234908701C
:1085C0009DF805001C4908700846007810F0DAFC98
:1085D00000200DF019F91A48007800F0010319483D
:1085E00090F8222000E00DE090F821101248007869
:1085F0000AF096FC12480078401C114908700DF0F2
:108600000FF916E0012C14D10C480078032803D18F
:108610000E2002F06BFA02E0002003F019F90021AD
:10862000042012F0B3F90749D1F8B3000AF06CFB4B
:108630008EE703208CE700003D2400203E2400202C
:1086400038240020007E0020E02300203F2400206A
:10865000E1230020E223002010B504460D2C16D1A2
:108660000121042012F092F900200DF0CDF82249EA
:10867000488A02210AF02AFD0DF0D2F81E4890F82F
:10868000D0001E49087001200DF0F6F831E00B2CE7
:108690001BD11A480078401E184908700846007817
:1086A00028B91748007817490870002010BD00202D
:1086B0000DF0AAF8114A127802F001010E4A508A10
:1086C0000AF004FD0DF0ACF813E0012C09D10021F3
:1086D000042012F05BF90849D1F8B3000AF014FB4A
:1086E000E4E70A2C05D10648007806490870002006
:1086F000DCE70620DAE70000007E0020E02300200F
:10870000E1230020E223002038B504460D2C3ED1A1
:1087100005221146032000F0E1FF00200DF074F85F
:10872000002035490870062034490870084634494D
:1087300000904A7809789939C8B22F490B783049A6
:10874000891C00F00DFF2C480078401C2A49087055
:108750000DF066F801200DF08FF80121042012F0D1
:1087600015F927484078062805DD25484078401F40
:108770002449087002E014202249087006201F498D
:10878000087001220421032000F0A8FF32E00B2C26
:108790001DD11A481A4900904A7809789939C8B207
:1087A00015490B781649891C00F0DAFE124800784A
:1087B000401C114908700DF033F812480078401E33
:1087C0001049087008460078A0B9002038BD012C77
:1087D00010D10021042012F0D9F80AF049FA38B17A
:1087E0000AF050FA10B108480078EFE70B20EDE7E7
:1087F0000120EBE71220E9E738240020662400205E
:10880000883E0020E0230020E223002010B504462B
:108810001E480078012804D1072002F067F91320D0
:1088200010BD0D2C09D100200CF0EEFF0DF00EF85C
:108830000021481E12F0AAF826E0012C01D0092CD4
:1088400022D10AF015FA10B111480078E8E7092C96
:1088500003D101200F490870E2E70F4890F820008B
:10886000C0F3401070B100200A4908700848017830
:10887000012088400849D1F8B310084202D00448CA
:108880000078CDE70120CBE70020C9E7C422002013
:10889000E223002039240020007E002010B5044689
:1088A0000D2C1ED100202A4908700CF0ADFF0121CB
:1088B000042012F06BF8274890F8D0002649087081
:1088C00026488179224800780AF0E4FD20480078A3
:1088D000401C1F4908700CF0A3FF01200CF0CCFFD6
:1088E00034E00B2C1ED11C480078401E1A49087039
:1088F0000846007828B91A4800781A4908700020FC
:1089000010BD00200CF080FF1448817910480078D9
:108910000AF0C0FD0E480078401C0D4908700CF0AC
:108920007FFF13E0012C09D10021042012F02EF862
:108930000849D1F8B3000AF0E7F9E1E70A2C05D1BC
:1089400007480078074908700020D9E70920D7E7D1
:1089500038240020007E0020E0230020C4220020D4
:10896000E1230020E223002070B504460D2C1DD128
:1089700000200CF049FF00203949087008460078B3
:1089800000F0010103200AF0D3FD35480078401CB7
:10899000334908700CF044FF0121042011F0F6FF68
:1089A000304890F8D0003049087057E00B2C31D196
:1089B00000200BF067FC38B107F02CFF2949D1F8F3
:1089C000B3000AF0A1F970BD27480078401E26497F
:1089D00008700846007828B92448007824490870AF
:1089E0000020F0E700200CF00FFF224A157805EB7D
:1089F000D5725210C2F10300194A127802F0010137
:108A00000AF096FD16480078401C154908700CF0D5
:108A100007FF23E0012C0ED1144800781449087098
:108A20000021042011F0B2FFFEF758FF08B1012029
:108A3000C9E70920C7E7102C08D101200BF022FC60
:108A4000084890F8D0000849087007E00A2C05D1C2
:108A500006480078064908700020B4E70A20B2E70B
:108A600038240020007E0020E0230020E1230020A5
:108A7000E22300203A24002010B504460D2C21D119
:108A800000200CF0C1FE0020334908700A4612781D
:108A900002F00101314A10790AF090FD2E48007869
:108AA000401C2D4908700CF0BBFE01200CF0E4FEC8
:108AB0002B4890F8D0002B4908700121042011F0B8
:108AC00065FF46E00B2C27D100200BF0DBFB18B133
:108AD0000DF04CFE012010BD00200CF095FE1E4A4A
